S01700004763634170706C69636174696F6E332E7372656359
S113000071C0000081C000007FC000007DC00000FE
S11300107BC0000079C0000077C0000075C00000FC
S113002073C0000071C000006FC000006DC000000C
S11300306BC0000069C0000067C0000065C000001C
S113004063C00000D4C200005FC000005DC00000B7
S11300505BC0000059C0000057C0000055C000003C
S113006053C0000051C000004FC000004DC000004C
S11300704BC0000049C0000047C0000045C000005C
S113008043C0000041C000003FC000003DC000006C
S11300903BC0000039C0000037C0000035C000007C
S11300A033C0000031C000002FC000002DC000008C
S11300B02BC0000029C0000027C0000025C000009C
S11300C023C0000021C000001FC000001DC00000AC
S11300D01BC0000019C0000017C0000015C00000BC
S11300E013C0000011241FBECFEFD1E2DEBFCDBF8D
S11300F000E00CBF2AE0A0E0B2E001C01D92A438E9
S1130100B207E1F77ED28EC27BCF0F921F922F925D
S11301103F924F925F926F927F928F929F92AF9293
S1130120BF92CF92DF92EF92FF920F931F932F9380
S11301303F934F935F936F937F938F939F93AF936B
S1130140BF93CF93DF93EF93FF930CB70F93FFB756
S1130150FF93EDB7FEB70CB7E093820AF093830ADE
S1130160E091800AF091810AEDBFFEBF0CBFFF91C0
S1130170FFBF0F910CBFFF91EF91DF91CF91BF9122
S1130180AF919F918F917F916F915F914F913F912B
S11301902F911F910F91FF90EF90DF90CF90BF9020
S11301A0AF909F908F907F906F905F904F903F9013
S11301B02F901F900F9018950F921F922F923F929D
S11301C04F925F926F927F928F929F92AF92BF9263
S11301D0CF92DF92EF92FF920F931F932F933F934F
S11301E04F935F936F937F938F939F93AF93BF933B
S11301F0CF93DF93EF93FF930CB70F93FFB7FF9366
S1130200EDB7FEB70CB7E093800AF093810AE09152
S1130210820AF091830AEDBFFEBF0CBFFF91FFBFBE
S11302200F910CBFFF91EF91DF91CF91BF91AF91EF
S11302309F918F917F916F915F914F913F912F91FA
S11302401F910F91FF90EF90DF90CF90BF90AF90F0
S11302509F908F907F906F905F904F903F902F90E2
S11302601F900F9008952FE031E00BC0809104029D
S113027090910502019687709927909305028093C7
S113028004028091040290910502829FF001839FF1
S1130290F00D929FF00D1124E65FFC4F80818130B8
S11302A029F720910402309105028FE091E0289F04
S11302B0F001299FF00D389FF00D1124E85FFD4FE8
S11302C0F0930702E0930602808191819093810A62
S11302D08093800AEE5FFE4F83E080838091040266
S11302E09091050201968770992790930502809357
S11302F00402789408958091020290910302892B5C
S113030051F0F894E0910602F0910702EB5FFE4F82
S113031083E0808351CF08950F931F93CF93DF938E
S1130320FC013296A0E0B1E0EF018D011992015079
S11303301040E1F7DC01AF5FBE4FEBE7F1E0EC9377
S11303401197FC93FC01E150FF4F108231976083B9
S11303503197708331971082B397DC01ED93FC934E
S1130360BA966083718332961082369631832083E5
S113037033974083369781E08083DF91CF911F913B
S11303800F910895CF93DF93EC0180910002909137
S11303900102089761F180910A03882371F0A9E1B1
S11303A0B4E0E1E0F0E09C91992349F03196A15F3B
S11303B0BE4FE830F105B9F702C0E0E0F0E09A0181
S11303C0462FBE0180910002909101020196909304
S11303D0010280930002AFE0B1E0EA9FC001EB9F0D
S11303E0900DFA9F900D1124885F9D4F95DFDF914A
S11303F0CF91089510928000E1E8F0E010828081AE
S11304008860808380818260808380E29EE4909310
S1130410890080938800EFE6F0E080818260808329
S11304200895CF93DF9381E081B982E081B9109878
S11304301198E0DF10920102109200021092030260
S1130440109202021092050210920402EAE0F3E014
S113045042E85BE02FE031E0DF01A250B140ED0162
S1130460C90119920197E9F71082CF010D9694877B
S11304708387E15FFE4FE417F50771F7DF91CF91B2
S11304800895CF938091020290910302892B09F081
S113049045C08091000290910102892B09F43EC06D
S11304A0F89481E090E09093030280930202DBDEF3
S11304B0C1E0E0910602F09107028081918190935E
S11304C0810A8093800A21DEE0910602F0910702FE
S11304D08091800A9091810A91838083DF01AB5FD0
S11304E0BE4F8C91823081F0833099F0813009F7CE
S11304F016964D915C91119713976C91ED5FFE4F99
S1130500808191813FDFD5CFEE5FFE4FC083ABDEAC
S1130510D0CFEE5FFE4F1082A6DECBCFCF910895F1
S11305202091020230910302232BE1F0F8942091F0
S1130530060230910702F901EB5FFE4F71E0708310
S113054032979183808338965183408333976083B5
S113055033DEE0910602F0910702E75FFE4F8081EF
S1130560918108950FDFE0910602F0910702E75FA1
S1130570FE4F80819181089580910202909103023F
S1130580892B51F0F894E0910602F0910702EB5F99
S1130590FE4F82E0808310CE0895D0E0CDE711981D
S11305A08D2F9C2F0197F1F78D2F9C2F0197F1F739
S11305B08D2F9C2F0197F1F78D2F9C2F0197F1F729
S11305C0DBDFEDCFD0E0CDE7119A8D2F9C2F019783
S11305D0F1F78D2F9C2F0197F1F78D2F9C2F019709
S11305E0F1F78D2F9C2F0197F1F7C6DFEDCF1F9206
S11305F00F920FB60F9211240F900FBE0F901F9001
S113060018950FDF40E050E060E082EE92E088DF72
S113061040E050E060E08DEC92E082DF32DF80E089
S10B062090E00895F894FFCF67
S9030000FC
