:1000000071C0000081C000007FC000007DC0000002
:100010007BC0000079C0000077C0000075C0000000
:1000200073C0000071C000006FC000006DC0000010
:100030006BC0000069C0000067C0000065C0000020
:1000400063C000000BC400005FC000005DC0000082
:100050005BC0000059C0000057C0000055C0000040
:1000600053C0000051C000004FC000004DC0000050
:100070004BC0000049C0000047C0000045C0000060
:1000800043C0000041C000003FC000003DC0000070
:100090003BC0000039C0000037C0000035C0000080
:1000A00033C0000031C000002FC000002DC0000090
:1000B0002BC0000029C0000027C0000025C00000A0
:1000C00023C0000021C000001FC000001DC00000B0
:1000D0001BC0000019C0000017C0000015C00000C0
:1000E00013C0000011241FBECFEFD1E2DEBFCDBF91
:1000F00000E00CBF2AE0A0E0B2E001C01D92A93DE3
:10010000B207E1F7B5D3BFC37BCF0F921F922F92F7
:100110003F924F925F926F927F928F929F92AF9297
:10012000BF92CF92DF92EF92FF920F931F932F9384
:100130003F934F935F936F937F938F939F93AF936F
:10014000BF93CF93DF93EF93FF930CB70F93FFB75A
:10015000FF93EDB7FEB70CB7E093D70AF093D80A38
:10016000E091D50AF091D60AEDBFFEBF0CBFFF911A
:10017000FFBF0F910CBFFF91EF91DF91CF91BF9126
:10018000AF919F918F917F916F915F914F913F912F
:100190002F911F910F91FF90EF90DF90CF90BF9024
:1001A000AF909F908F907F906F905F904F903F9017
:1001B0002F901F900F9018950F921F922F923F92A1
:1001C0004F925F926F927F928F929F92AF92BF9267
:1001D000CF92DF92EF92FF920F931F932F933F9353
:1001E0004F935F936F937F938F939F93AF93BF933F
:1001F000CF93DF93EF93FF930CB70F93FFB7FF936A
:10020000EDB7FEB70CB7E093D50AF093D60AE091AC
:10021000D70AF091D80AEDBFFEBF0CBFFF91FFBF18
:100220000F910CBFFF91EF91DF91CF91BF91AF91F3
:100230009F918F917F916F915F914F913F912F91FE
:100240001F910F91FF90EF90DF90CF90BF90AF90F4
:100250009F908F907F906F905F904F903F902F90E6
:100260001F900F900895CF93DF93E1E1F2E080E0DB
:1002700090E0A081B181109711F181F0ED01CF5E86
:10028000DE4F28813981880F991F880F991FFC0143
:10029000EF5EFD4F3183208319821882B0930C02E8
:1002A000A0930B028D919C9111979093D60A809305
:1002B000D50AAE5FBE4F83E08C93789405C001965B
:1002C00034968B309105A9F6DF91CF9108958091F6
:1002D000070290910802892B51F0F894E0910B02EB
:1002E000F0910C02EB5FFE4F87E0808365CF0895AD
:1002F0000F931F93CF93DF93FC013296A0E0B1E000
:10030000EF018D01199201501040E1F7DC01AF5F60
:10031000BE4FE7E6F1E0EC931197FC93FC01E1504E
:10032000FF4F10823197608331977083319710822D
:10033000B397DC011196FC93EE93BA9671836083B8
:100340003296108236963183208333974083A15FA3
:10035000BE4F11961C921E921D9721E02C93208176
:1003600030E0399611821082F901EE0FFF1FEE0F77
:10037000FF1FEF5EFD4F40815181452B61F4220F3D
:10038000331F220F331FF901EF5EFD4F91838083EE
:100390009383828310C0220F331F220F331FF90172
:1003A000EF5EFD4FA281B381AF5EBE4F11969C936D
:1003B0008E9393838283DF91CF911F910F91089544
:1003C000209105023091060228303105F9F0A09104
:1003D0000D02B0910E02109759F0FD01EF5EFE4F35
:1003E0002081318130930E0220930D021182108200
:1003F0009A01462FBC01E0910502F0910602319668
:10040000F0930602E0930502CD0172CF0895A0910A
:100410000B02B0910C02FD01E85FFE4F8081882342
:10042000F1F08091110290911202892BD9F445E1EB
:1004300052E020E030E0DF0108C04C5F5F4FFA017E
:10044000349780819181892B81F42F5F3F4F8C916C
:1004500090E0281739078CF380E090E0089580E061
:1004600090E0089581E090E0089581E090E00895A3
:1004700010928000E1E8F0E0108280818860808343
:1004800080818260808380E29EE4909389008093E3
:100490008800EFE6F0E0808182608083089581E04B
:1004A00081B9099A10981198E3DF10920602109210
:1004B0000502109208021092070210920A0210928E
:1004C0000902ADE3B2E020E030E043E151E0FD019C
:1004D000CA0111920197E9F7249FC001259F900D51
:1004E000349F900D1124835C9D4FFC01EE5FFE4F05
:1004F0001082AD5EBE4F3F96B183A0832F5F3F4F0A
:100500002730310521F71092C40A1092D40A1092B4
:10051000D30AEDE0F2E08DE392E09183808382ECF8
:1005200099E0938382830895DF92EF92FF920F9375
:100530001F93CF93DF938091070290910802892B3C
:1005400009F0C5C08091050290910602892B09F43B
:10055000BEC0F89481E090E0909308028093070277
:1005600082DEDD24D3940F2EFDE0EF2EF2E0FF2E8D
:10057000F02D00E012E0E0910B02F0910C0280817E
:1005800091819093D60A8093D50ABFDDC0910B026A
:10059000D0910C028091D50A9091D60A99838883D4
:1005A000FE01EB5FFE4F80818230D1F118F4813083
:1005B00039F0E1CF8530C9F1873009F469C0DBCF6C
:1005C000D80112964D915C91139714966C911497E3
:1005D0008D919C91F5DE1BDF892B69F2FE01EE5FA8
:1005E000FE4FD082DE01A85FBE4FEC91F0E0EE0F2F
:1005F000FF1FEE0FFF1FEF5EFD4F80819181FE0117
:10060000EF5EFE4F91838083EC91F0E0EE0FFF1FD1
:10061000EE0FFF1FEF5EFD4FD183C08324DEABCF13
:10062000CE5FDE4FD8821FDEA6CFFE01EE5FFE4F0B
:10063000D0823696808190E0399611821082FC013A
:10064000EE0FFF1FEE0FFF1FEF5EFD4F2081318188
:10065000232B61F4880F991F880F991FFC01EF5E0F
:10066000FD4FD183C083D383C28310C0880F991FED
:10067000880F991FFC01EF5EFD4FA281B381AF5E31
:10068000BE4F1196DC93CE93D383C283ECDD73CF40
:10069000FE01EE5FFE4F10823F9611821082F7013D
:1006A00080819181892B29F4D183C083D383C28334
:1006B0000CC0D7010280F381E02DEF5EFE4FD183A5
:1006C000C0831396DC93CE931297CDDD54CFDF9188
:1006D000CF911F910F91FF90EF90DF90089520919F
:1006E000070230910802232BD1F0F894E0E0F2E009
:1006F00091838083538342836483E0910B02F09162
:100700000C02EB5FFE4F81E0808356DDE0910B022F
:10071000F0910C02E75FFE4F80819181089550DED9
:10072000E0910B02F0910C02E75FFE4F8081918116
:100730000895109880E09DE70197F1F780E09DE72C
:100740000197F1F780E09DE70197F1F780E09DE7E1
:100750000197F1F740E050E060E087E094E0BFDF10
:1007600030E02DE7832F922F0197F1F7832F922FFF
:100770000197F1F7832F922F0197F1F7832F922F93
:100780000197F1F7832F922F0197F1F7832F922F83
:100790000197F1F7832F922F0197F1F7832F922F73
:1007A0000197F1F7DFCF109840E050E061E089E970
:1007B00093E095DF30E02DE71098832F922F01977B
:1007C000F1F7832F922F0197F1F7832F922F019743
:1007D000F1F7832F922F0197F1F7EECF40E050E031
:1007E00065E083ED93E07BDF72CD08958091070291
:1007F00090910802892B51F0F894E0910B02F0914E
:100800000C02EB5FFE4F85E08083D6CC0895109AF2
:10081000D0E0CDE7109A8D2F9C2F0197F1F78D2F07
:100820009C2F0197F1F78D2F9C2F0197F1F78D2FBA
:100830009C2F0197F1F710988D2F9C2F0197F1F7BE
:100840008D2F9C2F0197F1F78D2F9C2F0197F1F79A
:100850008D2F9C2F0197F1F7C9DFDCCF1F920F92EC
:100860000FB60F9211240F900FBE0F901F90189586
:1008700016DE40E050E060E08EEE93E030DF54DEC4
:0A08800080E090E00895F894FFCFA7
:00000001FF
