:1000000071C0000081C000007FC000007DC0000002
:100010007BC0000079C0000077C0000075C0000000
:1000200073C0000071C000006FC000006DC0000010
:100030006BC0000069C0000067C0000065C0000020
:1000400063C0000027C300005FC000005DC0000067
:100050005BC0000059C0000057C0000055C0000040
:1000600053C0000051C000004FC000004DC0000050
:100070004BC0000049C0000047C0000045C0000060
:1000800043C0000041C000003FC000003DC0000070
:100090003BC0000039C0000037C0000035C0000080
:1000A00033C0000031C000002FC000002DC0000090
:1000B0002BC0000029C0000027C0000025C00000A0
:1000C00023C0000021C000001FC000001DC00000B0
:1000D0001BC0000019C0000017C0000015C00000C0
:1000E00013C0000011241FBECFEFD1E2DEBFCDBF91
:1000F00000E00CBF2AE0A0E0B2E001C01D92A03CED
:10010000B207E1F7D1D2E1C27BCF0F921F922F92BB
:100110003F924F925F926F927F928F929F92AF9297
:10012000BF92CF92DF92EF92FF920F931F932F9384
:100130003F934F935F936F937F938F939F93AF936F
:10014000BF93CF93DF93EF93FF930CB70F93FFB75A
:10015000FF93EDB7FEB70CB7E093BE0AF093BF0A6A
:10016000E091BC0AF091BD0AEDBFFEBF0CBFFF914C
:10017000FFBF0F910CBFFF91EF91DF91CF91BF9126
:10018000AF919F918F917F916F915F914F913F912F
:100190002F911F910F91FF90EF90DF90CF90BF9024
:1001A000AF909F908F907F906F905F904F903F9017
:1001B0002F901F900F9018950F921F922F923F92A1
:1001C0004F925F926F927F928F929F92AF92BF9267
:1001D000CF92DF92EF92FF920F931F932F933F9353
:1001E0004F935F936F937F938F939F93AF93BF933F
:1001F000CF93DF93EF93FF930CB70F93FFB7FF936A
:10020000EDB7FEB70CB7E093BC0AF093BD0AE091DE
:10021000BE0AF091BF0AEDBFFEBF0CBFFF91FFBF4A
:100220000F910CBFFF91EF91DF91CF91BF91AF91F3
:100230009F918F917F916F915F914F913F912F91FE
:100240001F910F91FF90EF90DF90CF90BF90AF90F4
:100250009F908F907F906F905F904F903F902F90E6
:100260001F900F900895CF93DF93ECE0F2E080E0D1
:1002700090E0A081B181109711F181F0880F991F52
:10028000880F991FFC01E45FFD4FED01C15FDE4F58
:10029000888199819183808319821882B0930702A3
:1002A000A09306028D919C9111979093BD0A809323
:1002B000BC0AAE5FBE4F83E08C93789405C0019674
:1002C00034968A309105A9F6DF91CF9108958091F7
:1002D000020290910302892B51F0F894E0910602FA
:1002E000F0910702EB5FFE4F83E0808365CF0895B6
:1002F0000F931F93CF93DF93FC013296A0E0B1E000
:10030000EF018D01199201501040E1F7DC01AF5F60
:10031000BE4FE7E6F1E0EC931197FC93FC01E1504E
:10032000FF4F10823197608331977083319710822D
:10033000B397DC01ED93FC93BA9660837183329698
:10034000108236963183208333974083369721E09D
:10035000208350E03D9611821082FA01EE0FFF1FBC
:10036000EE0FFF1FE45FFD4F20813181232B61F4ED
:10037000440F551F440F551FFA01E45FFD4F918351
:100380008083938382830FC0440F551F440F551FF2
:10039000FA01E45FFD4FA281B381A15FBE4F8D934F
:1003A0009C9393838283DF91CF911F910F91089546
:1003B000CF93DF93EC0180910002909101020897A6
:1003C00061F180913603882371F0A7E4B4E0E1E0A5
:1003D000F0E09C91992349F03196AF5EBE4FE83032
:1003E000F105B9F702C0E0E0F0E09A01462FBE0146
:1003F00080910002909101020196909301028093F6
:100400000002A1E1B1E0EA9FC001EB9F900DFA9FCD
:10041000900D11248C5C9D4F6BDFDF91CF9108957F
:1004200010928000E1E8F0E0108280818860808393
:1004300080818260808380E29EE490938900809333
:100440008800EFE6F0E08081826080830895CF939A
:10045000DF9381E081B982E081B910981198E0DFE3
:1004600010920102109200021092030210920202F6
:100470001092050210920402E6E3F3E04DEA5AE01E
:1004800021E131E0DF01A250B140ED01C901199233
:100490000197E9F71082CF010F9696878587EF5E67
:1004A000FE4FE417F50771F71092AD0A1092BB0AE0
:1004B0001092BA0AE8E0F2E084E392E0918380834C
:1004C0008BEA99E093838283DF91CF910895CF9354
:1004D0008091020290910302892B09F045C080911E
:1004E000000290910102892B09F43EC0F89481E04A
:1004F00090E09093030280930202B5DEC1E0E091A8
:100500000602F0910702808191819093BD0A809349
:10051000BC0AFBDDE0910602F09107028091BC0A63
:100520009091BD0A91838083DF01AB5FBE4F8C91B8
:10053000823081F0833099F0813009F716964D9121
:100540005C91119713976C91ED5FFE4F80819181C3
:100550002FDFD5CFEE5FFE4FC08385DED0CFEE5FBD
:10056000FE4F108280DECBCFCF9108952091020202
:1005700030910302232BE1F0F89420910602309190
:100580000702F901EB5FFE4F71E0708332979183B0
:100590008083389651834083339760830DDEE091EA
:1005A0000602F0910702E75FFE4F80819181089576
:1005B000FFDEE0910602F0910702E75FFE4F8081C7
:1005C000918108958091020290910302892BB9F1E3
:1005D000F8942091060230910702F901EB5FFE4F7B
:1005E00082E080833396808190E03796118210827A
:1005F000FC01EE0FFF1FEE0FFF1FE45FFD4F408178
:100600005181452B61F4880F991F880F991FFC01B8
:10061000E45FFD4F31832083338322830FC0880F33
:10062000991F880F991FFC01E45FFD4FA281B381E0
:10063000A15FBE4F2D933C9333832283BDCD08959C
:10064000D0E0CDE711988D2F9C2F0197F1F78D2FDA
:100650009C2F0197F1F78D2F9C2F0197F1F78D2F8C
:100660009C2F0197F1F7AEDFEDCFD0E0CDE7119AE7
:100670008D2F9C2F0197F1F78D2F9C2F0197F1F76C
:100680008D2F9C2F0197F1F78D2F9C2F0197F1F75C
:1006900099DFEDCF1F920F920FB60F9211240F909A
:1006A0000FBE0F901F901895D2DE40E050E060E042
:1006B00085E393E05BDF40E050E060E080E293E0C0
:0E06C00055DF05DF80E090E00895F894FFCF4D
:00000001FF
