:100000007AC000008AC0000088C0000086C00000DE
:1000100084C0000082C0000080C000007EC00000DC
:100020007CC000007AC0000078C0000076C00000EC
:1000300074C0000072C0000070C000006EC00000FC
:100040006CC0000056C5000068C0000066C000001B
:1000500064C0000062C0000060C000005EC000001C
:100060005CC000005AC0000058C0000056C000002C
:1000700054C0000052C0000050C000004EC000003C
:100080004CC000004AC0000048C0000046C000004C
:1000900044C0000042C0000040C000003EC000005C
:1000A0003CC000003AC0000038C0000036C000006C
:1000B00034C0000032C0000030C000002EC000007C
:1000C0002CC000002AC0000028C0000026C000008C
:1000D00024C0000022C0000020C000001EC000009C
:1000E0001CC00000CC03D603EC03A003DC03FF0319
:1000F0000A041B04010411241FBECFEFD1E2DEBFAE
:10010000CDBF00E00CBF2BE0A0E0B2E001C01D922B
:10011000A531B207E1F7F7D409C572CF0F921F924C
:100120002F923F924F925F926F927F928F929F9207
:10013000AF92BF92CF92DF92EF92FF920F931F93F5
:100140002F933F934F935F936F937F938F939F93DF
:10015000AF93BF93CF93DF93EF93FF930CB70F93BE
:10016000FFB7FF93EDB7FEB70CB7E093130BF09317
:10017000140BE091110BF091120BEDBFFEBF0CBF01
:10018000FF91FFBF0F910CBFFF91EF91DF91CF91D6
:10019000BF91AF919F918F917F916F915F914F919F
:1001A0003F912F911F910F91FF90EF90DF90CF9093
:1001B000BF90AF909F908F907F906F905F904F9087
:1001C0003F902F901F900F9018950F921F922F9293
:1001D0003F924F925F926F927F928F929F92AF92D7
:1001E000BF92CF92DF92EF92FF920F931F932F93C4
:1001F0003F934F935F936F937F938F939F93AF93AF
:10020000BF93CF93DF93EF93FF930CB70F93FFB799
:10021000FF93EDB7FEB70CB7E093110BF093120B01
:10022000E091130BF091140BEDBFFEBF0CBFFF91DB
:10023000FFBF0F910CBFFF91EF91DF91CF91BF9165
:10024000AF919F918F917F916F915F914F913F916E
:100250002F911F910F91FF90EF90DF90CF90BF9063
:10026000AF909F908F907F906F905F904F903F9056
:100270002F901F900F900895FC01DB01AE5EBE4FE2
:1002800011961C921E9280819181892B29F4718391
:100290006083738362830895A281B381AE5EBE4F93
:1002A00011967C936E937383628308950F931F93CB
:1002B000CF93DF9320910702309108022830310557
:1002C00009F45EC0C0911102D0911202209759F03A
:1002D000FE01EE5EFE4F20813181309312022093A9
:1002E00011021182108220910702309108022F5FC3
:1002F0003F4F3093080220930702FE01329620E020
:1003000031E0DF0189011D9201501040E1F7E15019
:10031000FF4F27EC31E020833197308331971082F3
:100320003197808331979083319710829E012752B5
:100330003F4F39832883379691838083329610828A
:1003400037965183408334976083DE01A75FBE4FA9
:100350008FEF8C93179611961C921E921E9781E038
:100360008C93808190E0880F991F880F991FBE01A0
:100370008B5E9D4F81DFC65FDE4F8881998102C011
:100380008FEF9FEFDF91CF911F910F910895809193
:10039000090290910A02892B51F0F894E0910D0224
:1003A000F0910E02EB5FFE4F89E080830ECF08953F
:1003B000CF93DF93C5E1D2E060E070E048815981DE
:1003C0004115510509F4A3C0FA01E05FFE4F808199
:1003D0009181892B61F0CA0192C0DC01A05FBE4F00
:1003E0002D913C91232B09F08AC0CA0101C0CA019A
:1003F000FC01E05FFE4F20813181232B39F5FB01A9
:10040000EE0FFF1FEE0FFF1FEB5EFD4F22813381CA
:100410008217930749F4FB01EE0FFF1FEE0FFF1F3A
:10042000EB5EFD4F13821282FC01EE5EFE4F808177
:100430009181660F771F660F771FDB01AB5EBD4FA3
:100440008D939C9311821082FA0149C0FC01EE5EEB
:10045000FE4F80819181009709F440C0FC01E05F6C
:10046000FE4F20813181232B69F507C0FC01E05F3D
:10047000FE4F20813181232B29F5FB01EE0FFF1F59
:10048000EE0FFF1FEB5EFD4F228133818217930732
:1004900049F4660F771F660F771FFB01EB5EFD4F78
:1004A00053834283DC01AE5EBE4F2D913C91119788
:1004B000FA01EE5EFE4F3183208311961C921E924C
:1004C000FC010DC0FA01EE5EFE4F40815181DC015E
:1004D000AE5EBE4F8D919C91009741F6FFCFF09399
:1004E0000E02E0930D02808191819093120B809314
:1004F000110BEE5FFE4F83E0808378940FC0FC0108
:10050000EE5EFE4F80819181009709F066CF6F5FAC
:100510007F4F24966B30710509F050CFDF91CF915A
:100520000895CF93DF93C0910D02D0910E02FE018A
:10053000E85FFE4F8081882359F1A5E1B2E040E0F9
:1005400050E0EF018D919C9111970097B1F0FC0163
:10055000E05FFE4F20813181232B41F41CC0FC0160
:10056000E05FFE4F20813181232BC1F0FC01EE5E64
:10057000FE4F80819181009791F74F5F5F4F888197
:10058000149690E048175907ECF280E090E008C01C
:1005900080E090E005C081E090E002C081E090E062
:1005A000DF91CF910895BDDF892B31F180910D024C
:1005B00090910E02FC01EE5FFE4F21E02083DC01F2
:1005C000A85FBE4FEC91F0E0EE0FFF1FEE0FFF1F94
:1005D000EB5EFD4F20813181FC01EE5EFE4F3183E9
:1005E0002083EC91F0E0EE0FFF1FEE0FFF1FEB5E9C
:1005F000FD4F91838083DCCE089510928000E1E866
:10060000F0E01082808188608083808182608083B6
:1006100080E29EE49093890080938800EFE6F0E00A
:10062000808182608083089581E081B9099A109861
:100630001198E3DF109208021092070210920A024A
:100640001092090210920C0210920B02A1E7B2E084
:1006500020E030E044E151E0FD01CA011192019730
:10066000E9F7249FC001259F900D349F900D112420
:100670008F589D4FFC01EE5FFE4F108238963183FC
:100680002083AC5EBE4F3896B183A0832F5F3F4F6F
:100690002730310509F7E1E4F2E080E090E02FEF48
:1006A0003FEFDC01AA0FBB1FAF59BD4F11963C9322
:1006B0002E93118210821382128201963496883012
:1006C000910579F71092FF0A1092100B10920F0B00
:1006D000E1E1F2E081E792E0918380838DEF99E0A0
:1006E000938382830895BF92CF92DF92EF92FF921D
:1006F0000F931F93CF93DF938091090290910A0289
:10070000892B09F01AC18091070290910802892B68
:1007100009F413C1F89481E090E090930A02809369
:10072000090246DEBB24BA94CC24CA94DC2CFF24F4
:10073000F3946894EE24E1F801E010E0C0E0D2E028
:10074000E0910D02F0910E02808191819093120B45
:100750008093110BE05FFE4F80819181892B09F01E
:10076000FFCFDCDC60910D0270910E028091110BC5
:100770009091120BFB0191838083EB5FFE4FE08130
:100780008E2F90E0FC013197E930F105C8F68827FB
:10079000EE58FF4F8F4FC2C14A815B816C818881C7
:1007A000998184DD9E838D83FEDECACFFB01EE5FDF
:1007B000FE4FF082FDDDC4CFFB01EE5FFE4FF08205
:1007C0003696808190E0880F991F880F991F8B5E65
:1007D0009D4F52DDEDDDB4CFFB01EE5FFE4FF082A9
:1007E0003E96118300833897808190E0880F991F8F
:1007F000880F991F8B5E9D4F3FDDDADDA1CFD3DEE1
:100800009FCFFB01EE5FFE4F108281E192E034DD6D
:10081000CFDD96CFFB01EE5FFE4FE08280910F02AD
:1008200090911002880F991F880F991F8F5B9D4F21
:1008300023DDBEDD85CFE0910F02F0911002EE0FB7
:10084000FF1FEE0FFF1FEF5BFD4F80819181892B12
:1008500009F459C080910F0290911002FC01EE0F33
:10086000FF1FEE0FFF1FEF5BFD4F20813181211530
:10087000310581F0F901EE5EFE4F40815181880F14
:10088000991F880F991FDC01AF5BBD4F4D935C939F
:1008900011821082E0910F02F0911002D901A65F3F
:1008A000BE4F8D919C91EE0FFF1FEF59FD4F91832D
:1008B0008083FB01E85FFE4F9081F901E85FFE4F06
:1008C0008081981780F4FB01E75FFE4F9081F9016A
:1008D000E75FFE4F8083FB01E85FFE4F8081F901F7
:1008E000E85FFE4F8083F901EE5FFE4FF08236969F
:1008F000808190E0880F991F880F991FB9018B5E46
:100900009D4FBADC0AC0E0910F02F0911002EE0F89
:10091000FF1FEF59FD4FD182C08280910D0290914F
:100920000E02FC01E75FFE4F20812081DC01A85F01
:10093000BE4F2C93B08237DE03CFDF91CF911F9152
:100940000F91FF90EF90DF90CF90BF900895FC0142
:10095000EE0FFF1FEF59FD4F208131812F3F3F4F99
:1009600081F4E0910D02F0910E02E65FFE4F2081CE
:100970003181880F991FFC01EF59FD4F318320838E
:10098000089520910D0230910E02F901EB5FFE4FA8
:1009900047E04083F89433965081FC01EE0FFF1F2F
:1009A000EF59FD4FA081B18164E171E0A69FF00194
:1009B000A79FF00DB69FF00D1124E758FC4F408122
:1009C000541718F5FC01EE0FFF1FEF59FD4F608122
:1009D000718144E151E0649FD001659FB00D749F27
:1009E000B00D1124A658BC4F6C9160817181F90142
:1009F000E85FFE4F2081649FF001659FF00D749FBA
:100A0000F00D1124E758FC4F20839093100280933F
:100A10000F02DBCB0895FC01EE0FFF1FEF59FD4FD6
:100A20006081718120910D0230910E02F901E65F23
:100A3000FE4F408151816417750751F4F894359742
:100A400028E020839093100280930F02BECB08957C
:100A5000FFCF80E090E07BDF109A80E090E0DBDF6A
:100A6000F8CFCF93DF932091090230910A02232B14
:100A7000A1F0F894C0E0D2E0998388835B834A8335
:100A80006C83E0910D02F0910E02EB5FFE4F81E06E
:100A900080839BDB8D819E8101C008DCDF91CF913B
:100AA000089540E050E060E089E295E0DADF40E060
:100AB00050E060E080E795E0D4DF69CC0895809154
:100AC000090290910A02892B51F0F894E0910D02ED
:100AD000F0910E02EB5FFE4F85E0808376CB0895A8
:100AE00080E090E034DF109880E090E094DFE7DF72
:100AF000F7CF1F920F920FB60F9211240F900FBED7
:100B00000F901F90189590DD40E050E060E081E587
:100B100095E0A7DFE8DD80E090E00895EE0FFF1F8D
:100B2000881F8BBF0790F691E02D1994F894FFCFA2
:00000001FF
