:100000007EC0000090C000008EC000008CC00000C8
:100010008AC0000088C0000086C0000084C00000C4
:1000200082C0000080C000007EC000007CC00000D4
:100030007AC0000078C0000076C0000074C00000E4
:1000400072C000000C94BB086EC000006CC00000C1
:100050006AC0000068C0000066C0000064C0000004
:1000600062C0000060C000005EC000005CC0000014
:100070005AC0000058C0000056C0000054C0000024
:1000800052C0000050C000004EC000004CC0000034
:100090004AC0000048C0000046C0000044C0000044
:1000A00042C0000040C000003EC000003CC0000054
:1000B0003AC0000038C0000036C0000034C0000064
:1000C00032C0000030C000002EC000002CC0000074
:1000D0002AC0000028C0000026C0000024C0000084
:1000E00022C00000B304BF04EB040305D504C4041C
:1000F000E904880562068C07CE079D076F05112469
:100100001FBECFEFD1E2DEBFCDBF00E00CBF25E1C7
:10011000A0E0B2E001C01D92AF30B207E1F70E944B
:1001200015090C9428096CCF0F921F922F923F92C1
:100130004F925F926F927F928F929F92AF92BF92F7
:10014000CF92DF92EF92FF920F931F932F933F93E3
:100150004F935F936F937F938F939F93AF93BF93CF
:10016000CF93DF93EF93FF930CB70F93FFB7FF93FA
:10017000EDB7FEB70CB7E0930D15F0930E15E091B7
:100180000B15F0910C15EDBFFEBF0CBFFF91FFBF2B
:100190000F910CBFFF91EF91DF91CF91BF91AF9184
:1001A0009F918F917F916F915F914F913F912F918F
:1001B0001F910F91FF90EF90DF90CF90BF90AF9085
:1001C0009F908F907F906F905F904F903F902F9077
:1001D0001F900F9018950F921F922F923F924F925F
:1001E0005F926F927F928F929F92AF92BF92CF92C7
:1001F000DF92EF92FF920F931F932F933F934F93B2
:100200005F936F937F938F939F93AF93BF93CF939E
:10021000DF93EF93FF930CB70F93FFB7FF93EDB707
:10022000FEB70CB7E0930B15F0930C15E0910D158C
:10023000F0910E15EDBFFEBF0CBFFF91FFBF0F91F8
:100240000CBFFF91EF91DF91CF91BF91AF919F9143
:100250008F917F916F915F914F913F912F911F915E
:100260000F91FF90EF90DF90CF90BF90AF909F9055
:100270008F907F906F905F904F903F902F901F9046
:100280000F9008958091091590910A15F8D6119A4A
:1002900011988091091590910A1512D7F3CF80918A
:1002A000091590910A15EBD6109A80910915909135
:1002B0000A1506D7109884E690E047D7F0CF089A41
:1002C000099A0A9A109811981298A6D690930A152E
:1002D00080930915A1D6909308158093071540E0E7
:1002E00050E065E08FE491E00CD740E050E066E03C
:1002F00082E491E006D73FC00895FFCFFC01DB0107
:10030000AE5EBE4F11961C921E9280819181892B08
:1003100029F471836083738362830895A281B3811A
:10032000AE5EBE4F11967C936E9373836283089585
:10033000FC01808191810097B1F022813381821785
:10034000930729F4118210821382128207C0DC0104
:10035000AE5EBE4F2D913C9131832083FC01EE5E59
:10036000FE4F11821082089580E593ECA0E0B0E08A
:100370000197F1F70895CF93CFB7F894E0910F026A
:10038000F0911002EB5FFE4F83E0808324DFCFBF4C
:10039000CF910895CF93DF93C0910F02D0911002B7
:1003A000FE01E85FFE4F8081882359F1ADE4B2E0A1
:1003B00040E050E0EF018D919C9111970097B1F0D2
:1003C000FC01E05FFE4F20813181232B41F41CC0F2
:1003D000FC01E05FFE4F20813181232BC1F0FC0145
:1003E000EE5EFE4F80819181009791F74F5F5F4FE6
:1003F0008881149690E048175907ECF280E090E06D
:1004000008C080E090E005C081E090E002C081E09B
:1004100090E0DF91CF91089510928000E1E8F0E044
:10042000108280818860808380818260808380E206
:100430009EE49093890080938800EFE6F0E080814D
:1004400082608083089580911102823081F028F4C7
:10045000882349F0813049F00895843061F048F0F4
:100460008530B1F00895409A0895419A0895429ACE
:100470000895439A089588B18F6088B975DF74DF55
:1004800073DF88B1807F88B96FDF6EDF6DDFF3CFF8
:1004900088B1896088B968DF67DF66DF88B1867FE9
:1004A00088B962DF61DF60DFF3CFCF93DF938091A4
:1004B0000F0290911002FC01EE5FFE4F208123306D
:1004C00021F4815F934109F0C1C0CDE4D2E040E066
:1004D00050E0A881B981109709F4ABC0FD01E05F3D
:1004E000FE4F80819181892B61F0CD019AC0FC0182
:1004F000E05FFE4F20813181232B09F092C0CD01B6
:1005000001C0CD01FC01E05FFE4F20813181232B32
:1005100061F5FA01EE0FFF1FEE0FFF1FE35BFD4FCA
:10052000228133818217930761F4440F551F440FD2
:10053000551FFA01E35BFD4F138212821182108274
:100540000EC0FC01EE5EFE4F20813181440F551F2D
:10055000440F551FFA01E35BFD4F31832083FC01FB
:10056000EE5EFE4F118210824BC0FC01EE5EFE4F2C
:10057000808191810097F1F1FC01E05FFE4F2081C5
:100580003181232B59F507C0FC01E05FFE4F20812C
:100590003181232B19F5FA01EE0FFF1FEE0FFF1F1C
:1005A000E35BFD4F228133818217930749F4440FA7
:1005B000551F440F551FFA01E35BFD4FB383A28320
:1005C000FC01EE5EFE4F20813181AE5EBE4F119682
:1005D0003C932E9311821082DC0112C0AE5EBE4F9E
:1005E0000D90BC91A02DFC01EE5EFE4F80819181AB
:1005F000009751F682E08093110225DFA0E0B0E081
:10060000B0931002A0930F028D919C91119790933B
:100610000C1580930B15AE5FBE4F83E08C937894DE
:1006200015C0FC01EE5EFE4F80819181009709F0BC
:100630005ECF4F5F5F4F24964B30510509F049CF95
:1006400081EF93E19093100280930F02DF91CF919D
:100650000895A0DE892B31F180910F029091100254
:10066000FC01EE5FFE4F21E02083DC01A85FBE4F5E
:10067000EC91F0E0EE0FFF1FEE0FFF1FE35BFD4F6D
:1006800020813181FC01EE5EFE4F31832083EC91AD
:10069000F0E0EE0FFF1FEE0FFF1FE35BFD4F9183B6
:1006A000808303CF0895CF92DF92EF92FF921F9342
:1006B000CF93DF937C01162F6A01809107029091FE
:1006C0000802409719F410921102BDDE1B3071F040
:1006D00085E492E02DDEEC01809107029091080202
:1006E0000196909308028093070202C0C1EFD3E104
:1006F00080E091E0FE013296DF019C011D922150C5
:100700003040E1F78BEB91E0E150FF4F8083319770
:100710009083319710823197E0823197F082319740
:100720001082CE0187529F4F998388833796F1823A
:10073000E082329610823796D182C082349710833D
:100740008FEF319680833796118210821B3071F0C3
:1007500081E03E9780833696808190E0880F991FD4
:10076000880F991FBE01835B9D4FC8DDC65FDE4FBA
:1007700088819981DF91CF911F91FF90EF90DF9059
:10078000CF900895389A399A3A9A3B9A409841986E
:100790004298439841DE109208021092070210928C
:1007A0000A021092090210920C0210920B02A1EBA5
:1007B000B2E020E030E044E151E0FD01CA011192D5
:1007C0000197E9F7249FC001259F900D349F900D5C
:1007D00011248F549D4FFC01EE5FFE4F108238961E
:1007E00031832083AC5EBE4F3896B183A0832F5FE8
:1007F0003F4F2F30310509F780E090E0FC01EE0F0C
:10080000FF1FEE0FFF1FEE0FFF1FE81BF90BE7584E
:10081000FD4F108212821182A381B4811D921C921D
:10082000A381B48113961C921E9212971682158290
:1008300001968830910511F7E5E2F2E085E492E057
:1008400011821082138212823496E817F907C1F7D9
:100850001092DF131092F0131092EF13E5E4F2E020
:1008600081EB92E0918380838DED92E1938382838B
:1008700040E050E06BE08DE791E015CF08952F92B6
:100880003F924F925F926F927F928F929F92AF9220
:10089000BF92CF92DF92EF92FF920F931F93CF936D
:1008A000DF938091090290910A02892B09F0A1C37C
:1008B0008091070290910802892B09F49AC3F89459
:1008C00081E090E090930A0280930902EEDDEE242D
:1008D000E394F12C0F2EF3E04F2EF02D6894332487
:1008E00032F8CC24CA94DC2C0F2EF4E16F2EF2E007
:1008F0007F2EF02DBB24B39422242A940F2EF5E0F2
:100900005F2EF02D6894AA24A1F800E012E0E09197
:100910000F02F09110028081918190930C158093C9
:100920000B15E05FFE4F80819181892B09F08BDDF3
:10093000FBDBC0910F02D091100280910B159091BA
:100940000C1599838883FE01EB5FFE4FE0818E2FAB
:1009500090E0FC013197ED30F105C8F68827EE589C
:10096000FF4F8F4F6DC4F8014281538164818081B4
:10097000918199DEF801968385836BDEC8CFCE5FC7
:10098000DE4FB88292DDC3CFFE01EE5FFE4FB08234
:100990003696808190E0880F991F880F991FBE01BD
:1009A000835B9D4FABDC81DDB2CFFE01EE5FFE4F7E
:1009B000B0823E96F182E0823897808190E0880F85
:1009C000991F880F991FBE01835B9D4F97DC6DDDDA
:1009D0009ECF3FDE9CCFF3E1C13FDF0709F497CF05
:1009E000FE01EE5FFE4F1082BE0185E492E086DCE0
:1009F00080910702909108020197909308028093DA
:100A0000070253DD84CFFE01EE5EFE4F118210829D
:100A10002091490230914A022115310539F4E9E467
:100A2000F2E0D183C083D383C28357C0FE01EA5F63
:100A3000FE4F40815181F901EA5FFE4F8081918133
:100A40004817590748F4D0934A02C0934902CE5E32
:100A5000DE4F3983288341C0F901EE5EFE4F80816D
:100A60009181009789F1FE01EA5FFE4F408151813B
:100A7000FC01EA5FFE4F608171814617570770F0F5
:100A8000FE01EA5FFE4F14C060817181DC01AA5F44
:100A9000BE4F4D915C916417750750F4F901EE5EFD
:100AA000FE4FD183C083CE5EDE4F9983888315C00D
:100AB000D901AE5EBE4F2D913C91DC01AE5EBE4FC2
:100AC0008D919C91009701F7F901EE5EFE4FD18365
:100AD000C083D0934C02C0934B02E7DC18CF89E46B
:100AE00092E026DC90930E0280930D02FC01EE5FF3
:100AF000FE4FB0823696208130E0220F331F220F46
:100B0000331FBC01C901835B9D4FF8DBA2DDFFCE23
:100B10008090120290901302F40180819181FC0177
:100B2000EE0FFF1FEE0FFF1FEE0FFF1FE81BF90B6D
:100B3000E758FD4F8081813081F5F40180819181FA
:100B4000FC01EE0FFF1FEE0FFF1FEE0FFF1FE81B54
:100B5000F90BE758FD4FA082F40180819181FC01DF
:100B6000EE0FFF1FEE0FFF1FEE0FFF1FE81BF90B2D
:100B7000E758FD4FD283C183F40180819181FC014C
:100B8000EE0FFF1FEE0FFF1FEE0FFF1FE81BF90B0D
:100B9000E758FD4FF682E582BACEF401808191815B
:100BA000FC01EE0FFF1FEE0FFF1FEE0FFF1FE81BF4
:100BB000F90BE758FD4F8081823039F5F4018081CF
:100BC0009181FC01EE0FFF1FEE0FFF1FEE0FFF1FC5
:100BD000E81BF90BE758FD4F81819281C817D907AF
:100BE000A1F4F40180819181FC01EE0FFF1FEE0F53
:100BF000FF1FEE0FFF1FE81BF90BE758FD4F858124
:100C0000968101969683858382CEFE01EE5FFE4F2C
:100C1000A082F40180819181FC01EE0FFF1FEE0F95
:100C2000FF1FEE0FFF1FE81BF90BE758FD4F8381F5
:100C30009481BE0163DBF40180819181FC01EE0FA0
:100C4000FF1FEE0FFF1FEE0FFF1FE81BF90BE7580A
:100C5000FD4F0180F281E02DE85FFE4F9081FE01A3
:100C6000E85FFE4F8081981758F5F40180819181EB
:100C7000FC01EE0FFF1FEE0FFF1FEE0FFF1FE81B23
:100C8000F90BE758FD4F0180F281E02DE75FFE4F41
:100C90008081F40180819181FC01EE0FFF1FEE0F36
:100CA000FF1FEE0FFF1FE81BF90BE758FD4F0180F8
:100CB000F281E02DC85FDE4F8881E85FFE4F8083C0
:100CC000F4DB25CE8090120290901302F401808113
:100CD0009181FC01EE0FFF1FEE0FFF1FEE0FFF1FB4
:100CE000E81BF90BE758FD4F81819281C817D9079E
:100CF00021F050921102A7DB0ACEF401808191818C
:100D0000FC01EE0FFF1FEE0FFF1FEE0FFF1FE81B92
:100D1000F90BE758FD4F8081823031F5F401808175
:100D20009181FC01EE0FFF1FEE0FFF1FEE0FFF1F63
:100D3000E81BF90BE758FD4F858196810297A0F0DB
:100D4000F40180819181FC01EE0FFF1FEE0FFF1F68
:100D5000EE0FFF1FE81BF90BE758FD4F85819681C9
:100D6000019796838583D3CDF40180819181FC0125
:100D7000EE0FFF1FEE0FFF1FEE0FFF1FE81BF90B1B
:100D8000E758FD4F0380F481E02D80819181892B0C
:100D900009F4A2C0F40180819181FC01EE0FFF1FD4
:100DA000EE0FFF1FEE0FFF1FE81BF90BE758FD4F7B
:100DB00083819481BDDABC01F40180819181FC01C1
:100DC000EE0FFF1FEE0FFF1FEE0FFF1FE81BF90BCB
:100DD000E758FD4F0180F281E02DE85FFE4F9081E2
:100DE000FB01E85FFE4F80818917D0F43196808146
:100DF000F40180819181FC01EE0FFF1FEE0FFF1FB8
:100E0000EE0FFF1FE81BF90BE758FD4F0180F28141
:100E1000E02DE85FFE4F8081FB01E85FFE4F80839D
:100E2000F40180819181FC01EE0FFF1FEE0FFF1F87
:100E3000EE0FFF1FE81BF90BE758FD4F81819281F0
:100E4000F40120813181F901EE0FFF1FEE0FFF1F2A
:100E5000EE0FFF1FE21BF30BE758FD4F0180F281FD
:100E6000E02DE75FFE4F2081FC01E85FFE4F20830D
:100E7000F40180819181FC01EE0FFF1FEE0FFF1F37
:100E8000EE0FFF1FE81BF90BE758FD4F0180F281C1
:100E9000E02DE75FFE4F2082F40180819181FC010B
:100EA000EE0FFF1FEE0FFF1FEE0FFF1FE81BF90BEA
:100EB000E758FD4F72836183FB01EE5FFE4FB08206
:100EC0003696808190E0880F991F880F991F835B69
:100ED0009D4F14DABEDB1BCDF40180819181FC01B2
:100EE000EE0FFF1FEE0FFF1FEE0FFF1FE81BF90BAA
:100EF000E758FD4FB082F40180819181FC01EE0F33
:100F0000FF1FEE0FFF1FEE0FFF1FE81BF90BE75847
:100F1000FD4F16821582FBCC80911402883040F47C
:100F200070920615609205158F5F80931402EFCCC6
:100F3000D0920615C0920515EACCF3E1C13FDF0758
:100F400009F4E5CCE0910515F091061580819181B9
:100F500020911402281710F476DAD9CCFC01EE0F98
:100F6000FF1FEB5EFD4F208131812130310541F4BF
:100F7000880F991FFC01EB5EFD4F11821082C7CCD8
:100F8000FE01EE5FFE4F3082880F991F880F991F78
:100F9000BE018B5D9D4FB2D988DAB9CCE0910515C1
:100FA000F09106158081918120911402281710F488
:100FB0004ADAADCCFC01EE0FFF1FEE0FFF1FEB5D19
:100FC000FD4F20813181232B61F0CF01B1D9FC018C
:100FD000EE5FFE4F4082BC018DE492E08FD939DB99
:100FE00096CC880F991FFC01EB5EFD4FF182E082E9
:100FF0008ECCDF91CF911F910F91FF90EF90DF90FA
:10100000CF90BF90AF909F908F907F906F905F90A8
:101010004F903F902F90089580917902882389F016
:1010200021E030E0F901EE0FFF1FEE0FFF1FEE0F82
:10103000FF1FE21BF30BE758FD4F8081811113C0A6
:1010400002C020E030E0F901EE0FFF1FEE0FFF1F9E
:10105000EE0FFF1FE21BF30BE758FD4F81E080838B
:10106000822F932F08952F5F3F4F28303105D1F6FF
:1010700081E080931102E7D98FEF9FEF08951F93CE
:10108000CF93DF931F921F92CDB7DEB79A838983E8
:101090001FB7F894E0910F02F0911002EB5FFE4F42
:1010A00088E08083CE010196909313028093120210
:1010B00092D81FBF0F900F90DF91CF911F9108958D
:1010C0001F93CF93DF931F921F92CDB7DEB79A8302
:1010D00089831FB7F894E0910F02F0911002EB5F43
:1010E000FE4F89E08083CE01019690931302809396
:1010F000120271D81FBF0F900F90DF91CF911F91F7
:1011000008951F93CF93DF931FB720910902309169
:101110000A02232BA9F0F894C0E0D2E099838883D7
:101120005B834A836C83E0910F02F0911002EB5FC6
:10113000FE4F81E080834FD81FBF8D819E8101C00B
:10114000B2DADF91CF911F910895CF93CFB7F89482
:1011500020910F0230911002F901EB5FFE4F44E045
:101160004083339745E0408334969183808333D81E
:10117000CFBFCF9108951F920F920FB60F921124F7
:101180000BB60F922F933F934F935F936F937F9381
:101190008F939F93AF93BF93CF93EF93FF93409120
:1011A000490250914A024115510559F1CA01FC0109
:1011B000EA5FFE4F20813181232B31F02081318184
:1011C0002150310931832083FC01EE5EFE4F808186
:1011D0009181009761F70EC0CFB7F894E0910F02AC
:1011E000F0911002EB5FFE4F8DE080830E94EB00D8
:1011F000CFBF07C0FA01EA5FFE4F80819181892B42
:1012000059F3FF91EF91CF91BF91AF919F918F9142
:101210007F916F915F914F913F912F910F900BBEF6
:101220000F900FBE0F901F901895ACDA40E050E081
:1012300060E08FE591E065DF22DB80E090E00895DB
:10124000EE0FFF1F881F8BBF0790F691E02D1994BA
:04125000F894FFCF40
:00000001FF
