:1000000078C0000088C0000086C0000084C00000E6
:1000100082C0000080C000007EC000007CC00000E4
:100020007AC0000078C0000076C0000074C00000F4
:1000300072C0000070C000006EC000006CC0000004
:100040006AC0000087C4000066C0000064C00000F1
:1000500062C0000060C000005EC000005CC0000024
:100060005AC0000058C0000056C0000054C0000034
:1000700052C0000050C000004EC000004CC0000044
:100080004AC0000048C0000046C0000044C0000054
:1000900042C0000040C000003EC000003CC0000064
:1000A0003AC0000038C0000036C0000034C0000074
:1000B00032C0000030C000002EC000002CC0000084
:1000C0002AC0000028C0000026C0000024C0000094
:1000D00022C0000020C000001EC000001CC00000A4
:1000E0001AC000007C038603B103BA039C038C038F
:1000F000AF0311241FBECFEFD1E2DEBFCDBF00E0C2
:100100000CBF2AE0A0E0B2E001C01D92A13EB20700
:10011000E1F76DD4A6C474CF0F921F922F923F9235
:100120004F925F926F927F928F929F92AF92BF9207
:10013000CF92DF92EF92FF920F931F932F933F93F3
:100140004F935F936F937F938F939F93AF93BF93DF
:10015000CF93DF93EF93FF930CB70F93FFB7FF930A
:10016000EDB7FEB70CB7E093DF0AF093E00AE09139
:10017000DD0AF091DE0AEDBFFEBF0CBFFF91FFBFAD
:100180000F910CBFFF91EF91DF91CF91BF91AF9194
:100190009F918F917F916F915F914F913F912F919F
:1001A0001F910F91FF90EF90DF90CF90BF90AF9095
:1001B0009F908F907F906F905F904F903F902F9087
:1001C0001F900F9018950F921F922F923F924F926F
:1001D0005F926F927F928F929F92AF92BF92CF92D7
:1001E000DF92EF92FF920F931F932F933F934F93C2
:1001F0005F936F937F938F939F93AF93BF93CF93AF
:10020000DF93EF93FF930CB70F93FFB7FF93EDB717
:10021000FEB70CB7E093DD0AF093DE0AE091DF0A47
:10022000F091E00AEDBFFEBF0CBFFF91FFBF0F9141
:100230000CBFFF91EF91DF91CF91BF91AF919F9153
:100240008F917F916F915F914F913F912F911F916E
:100250000F91FF90EF90DF90CF90BF90AF909F9065
:100260008F907F906F905F904F903F902F901F9056
:100270000F900895FC01DB01AF5EBE4F11961C92FA
:100280001E9280819181892B29F47183608373830D
:1002900062830895A281B381AF5EBE4F11967C93B5
:1002A0006E937383628308950F931F93CF93DF93AD
:1002B00020910702309108022830310509F45BC013
:1002C000C0911102D0911202209759F0FE01EF5E09
:1002D000FE4F20813181309312022093110211824E
:1002E000108220910702309108022F5F3F4F309318
:1002F000080220930702FE01329620E031E0DF0180
:1003000089011D9201501040E1F7E150FF4F22ECAE
:1003100031E0208331973083319710823197808389
:1003200031979083319710829E0127523F4F398336
:100330002883379691838083329610823696518334
:10034000408333976083DE01A15FBE4F11961C92FC
:100350001E921D9781E08C93808190E0880F991FF9
:10036000880F991FBE01875E9D4F84DFC75FDE4FF8
:100370008881998102C08FEF9FEFDF91CF911F910C
:100380000F9108958091090290910A02892B51F0F2
:10039000F894E0910D02F0910E02EB5FFE4F83E0C6
:1003A000808311CF0895A9E1B2E060E070E02D9163
:1003B0003C9111972115310509F47AC0F901E15FEB
:1003C000FE4F80819181892B61F0C90169C0FC01D8
:1003D000E15FFE4F40815181452B09F061C0C901A9
:1003E00001C0C901FC01E15FFE4F40815181452BF5
:1003F000A1F4DC01AF5EBE4F8D919C911197660F09
:10040000771F660F771FFB01E75EFD4F91838083A7
:1004100011961C921E92F90133C0FC01EF5EFE4F53
:1004200080819181009759F1FC01E15FFE4F40818D
:100430005181452BC1F407C0FC01E15FFE4F4081B3
:100440005181452B81F4DC01AF5EBE4F4D915C9133
:100450001197F901EF5EFE4F5183408311961C9274
:100460001E92FC010DC0F901EF5EFE4F208131812B
:10047000FC01EF5EFE4F808191810097E9F6FFCF8E
:10048000F0930E02E0930D02808191819093DE0A39
:100490008093DD0AEE5FFE4F83E0808378940895B9
:1004A000FC01EF5EFE4F80819181009709F08FCFB4
:1004B0006F5F7F4F14966B30710509F078CFFFCFD7
:1004C000CF93DF93C0910D02D0910E02FE01E85F41
:1004D000FE4F8081882359F1A9E1B2E040E050E06D
:1004E000EF018D919C9111970097B1F0FC01E15FB4
:1004F000FE4F20813181232B41F41CC0FC01E15FC0
:10050000FE4F20813181232BC1F0FC01EF5EFE4FB5
:1005100080819181009791F74F5F5F4F888114969A
:1005200090E048175907ECF280E090E008C080E0C6
:1005300090E005C081E090E002C081E090E0DF91B2
:10054000CF910895BDDF892B31F180910D029091FB
:100550000E02FC01EE5FFE4F21E02083DC01A85F6C
:10056000BE4FEC91F0E0EE0FFF1FEE0FFF1FE75EB6
:10057000FD4F20813181FC01EF5EFE4F31832083EE
:10058000EC91F0E0EE0FFF1FEE0FFF1FE75EFD4F57
:100590009183808308CF089510928000E1E8F0E015
:1005A000108280818860808380818260808380E285
:1005B0009EE49093890080938800EFE6F0E08081CC
:1005C00082608083089581E081B9099A109811981A
:1005D000E3DF109208021092070210920A021092B2
:1005E000090210920C0210920B02A5E4B2E020E086
:1005F00030E043E151E0FD01CA0111920197E9F7B2
:10060000249FC001259F900D349F900D11248B5B7A
:100610009D4FFC01EE5FFE4F1082379631832083A1
:10062000AD5EBE4F3896B183A0832F5F3F4F27301A
:10063000310509F71092CC0A1092DC0A1092DB0AFD
:10064000E1E1F2E085E492E0918380838AEC99E035
:10065000938382830895EF92FF920F931F93CF931A
:10066000DF938091090290910A02892B09F088C0DA
:100670008091070290910802892B09F481C0F894B7
:1006800081E090E090930A02809309028CDE6894E6
:10069000EE24E2F8FF24F39401E010E0C0E0D2E0A1
:1006A000E0910D02F0910E02808191819093DE0A1B
:1006B0008093DD0AE15FFE4F80819181892B09F0F3
:1006C000FFCF2ADD60910D0270910E028091DD0A4C
:1006D0009091DE0AFB0191838083EB5FFE4FE08106
:1006E0008E2F90E0FC013197E730F105C8F688279E
:1006F000EE58FF4F8F4FADC14A815B816C8188817D
:100700009981D2DD9E838D831DDFCACFFB01EE5F11
:10071000FE4FF08248DEC4CFFB01EE5FFE4FF08259
:100720003696808190E0880F991F880F991F875E09
:100730009D4FA0DD38DEB4CFFB01EE5FFE4FF082AF
:100740003D96118300833797808190E0880F991F31
:10075000880F991F875E9D4F8DDD25DEA1CFF2DECC
:100760009FCFFB01EE5FFE4F108281E192E082DDC0
:100770001ADE96CFFB01EE5FFE4FE08214DE90CFD3
:10078000DF91CF911F910F91FF90EF900895CF933C
:10079000DF932091090230910A02232BA1F0F894F3
:1007A000C0E0D2E0998388835B834A836C83E091C5
:1007B0000D02F0910E02EB5FFE4F81E0808303DDBE
:1007C0008D819E8101C070DDDF91CF91089540E061
:1007D00050E065E08DE294E0DADFD4CD08958091B9
:1007E000090290910A02892B51F0F894E0910D02D0
:1007F000F0910E02EB5FFE4F86E08083E4CC08951B
:10080000D0E0CDE710988D2F9C2F0197F1F78D2F19
:100810009C2F0197F1F78D2F9C2F0197F1F78D2FCA
:100820009C2F0197F1F7DBDFEDCF80E09DE701978B
:10083000F1F780E09DE70197F1F780E09DE70197F0
:10084000F1F780E09DE70197F1F740E050E060E0CC
:1008500088E794E09CDFC3DFFECF40E050E061E03A
:1008600085E194E094DFBBDFFECF20914E03309111
:100870004F032817390799F021E030E063E171E078
:10088000269FF001279FF00D369FF00D1124E25BAB
:10089000FC4F4081518148175907F9F402C020E00C
:1008A00030E043E151E0249FF001259FF00D349F9B
:1008B000F00D1124EC5AFC4F21E030E0318320830D
:1008C00020910D0230910E02F901E75FFE4F408149
:1008D00051814817590759F403C02F5F3F4FD0CFBC
:1008E000F894F901EB5FFE4F85E080836CCC0895AE
:1008F00040E050E060E080E094E049DFEC0100E09F
:100900001DE7109A202F312F21503109E9F7802F50
:10091000912F0197F1F7802F912F0197F1F7802FF9
:10092000912F0197F1F7CE01A0DF59DF202F312F52
:1009300021503109E9F7802F912F0197F1F7202FEE
:10094000312F21503109E9F7202F312F2150310962
:10095000E9F7D7CF1F920F920FB60F9211240BB663
:100960000F922F933F934F935F936F937F938F9348
:100970009F93AF93BF93EF93FF9380910F0290915A
:10098000100201966FEF7FE751D090931002809391
:100990000F026091150270911602FB01EA5FFE4F93
:1009A000208131818217930779F46115710549F02F
:1009B0003B9680819181909316028093150211825B
:1009C000108289E192E056DCFF91EF91BF91AF91E7
:1009D0009F918F917F916F915F914F913F912F9157
:1009E0000F900BBE0F900FBE0F901F901895EBDD70
:1009F00040E050E060E087EE93E0C9DE2CDE80E06E
:100A000090E00895AA1BBB1B51E107C0AA1FBB1FA2
:100A1000A617B70710F0A61BB70B881F991F5A958A
:100A2000A9F780959095BC01CD01089597FB072EFD
:100A300016F4009406D077FD08D0E4DF07FC05D05B
:100A40003EF4909581959F4F0895709561957F4FE5
:100A50000895EE0FFF1F881F8BBF0790F691E02DC2
:060A60001994F894FFCF89
:00000001FF
