:100000007BC000008BC0000089C0000087C00000DA
:1000100085C0000083C0000081C000007FC00000D8
:100020007DC000007BC0000079C0000077C00000E8
:1000300075C0000073C0000071C000006FC00000F8
:100040006DC0000042C6000069C0000067C000002B
:1000500065C0000063C0000061C000005FC0000018
:100060005DC000005BC0000059C0000057C0000028
:1000700055C0000053C0000051C000004FC0000038
:100080004DC000004BC0000049C0000047C0000048
:1000900045C0000043C0000041C000003FC0000058
:1000A0003DC000003BC0000039C0000037C0000068
:1000B00035C0000033C0000031C000002FC0000078
:1000C0002DC000002BC0000029C0000027C0000088
:1000D00025C0000023C0000021C000001FC0000098
:1000E0001DC00000DB03EB03190423040104F0032B
:1000F0001704E804FE04C70411241FBECFEFD1E2A9
:10010000DEBFCDBF00E00CBF2BE0A0E0B2E001C03D
:100110001D92AB31B207E1F72AD650C671CF0F92CC
:100120001F922F923F924F925F926F927F928F9287
:100130009F92AF92BF92CF92DF92EF92FF920F9376
:100140001F932F933F934F935F936F937F938F935F
:100150009F93AF93BF93CF93DF93EF93FF930CB72E
:100160000F93FFB7FF93EDB7FEB70CB7E093190BF2
:10017000F0931A0BE091170BF091180BEDBFFEBF37
:100180000CBFFF91FFBF0F910CBFFF91EF91DF916B
:10019000CF91BF91AF919F918F917F916F915F911F
:1001A0004F913F912F911F910F91FF90EF90DF9012
:1001B000CF90BF90AF909F908F907F906F905F9007
:1001C0004F903F902F901F900F9018950F921F9275
:1001D0002F923F924F925F926F927F928F929F9257
:1001E000AF92BF92CF92DF92EF92FF920F931F9345
:1001F0002F933F934F935F936F937F938F939F932F
:10020000AF93BF93CF93DF93EF93FF930CB70F930D
:10021000FFB7FF93EDB7FEB70CB7E093170BF09362
:10022000180BE091190BF0911A0BEDBFFEBF0CBF3C
:10023000FF91FFBF0F910CBFFF91EF91DF91CF9125
:10024000BF91AF919F918F917F916F915F914F91EE
:100250003F912F911F910F91FF90EF90DF90CF90E2
:10026000BF90AF909F908F907F906F905F904F90D6
:100270003F902F901F900F900895FC01DB01AE5E20
:10028000BE4F11961C921E9280819181892B29F478
:1002900071836083738362830895A281B381AE5EAC
:1002A000BE4F11967C936E937383628308950F9370
:1002B0001F93CF93DF9320910702309108022830DB
:1002C000310509F45EC0C0911302D0911402209749
:1002D00059F0FE01EE5EFE4F208131813093140211
:1002E000209313021182108220910702309108029C
:1002F0002F5F3F4F3093080220930702FE01329692
:1003000020E031E0DF0189011D9201501040E1F74A
:10031000E150FF4F28EC31E0208331973083319753
:1003200010823197808331979083319710829E019C
:1003300027523F4F398328833796918380833296A3
:10034000108237965183408334976083DE01A75F24
:10035000BE4F8FEF8C93179611961C921E921E978C
:1003600081E08C93808190E0880F991F880F991FFE
:10037000BE01855E9D4F81DFC65FDE4F888199811A
:1003800002C08FEF9FEFDF91CF911F910F910895E2
:100390008091090290910A02892B51F0F894E09122
:1003A0000F02F0911002EB5FFE4F83E080830ECFCF
:1003B0000895CF93DF93CBE1D2E060E070E0488115
:1003C00059814115510509F4A3C0FA01E05FFE4FC0
:1003D00080819181892B61F0CA0192C0DC01A05F0C
:1003E000BE4F2D913C91232B09F08AC0CA0101C058
:1003F000CA01FC01E05FFE4F20813181232B39F5DA
:10040000FB01EE0FFF1FEE0FFF1FE55EFD4F228188
:1004100033818217930749F4FB01EE0FFF1FEE0FA4
:10042000FF1FE55EFD4F13821282FC01EE5EFE4F60
:1004300080819181660F771F660F771FDB01A55EB4
:10044000BD4F8D939C9311821082FA0149C0FC012B
:10045000EE5EFE4F80819181009709F440C0FC015F
:10046000E05FFE4F20813181232B69F507C0FC013D
:10047000E05FFE4F20813181232B29F5FB01EE0F38
:10048000FF1FEE0FFF1FE55EFD4F228133818217B4
:10049000930749F4660F771F660F771FFB01E55E30
:1004A000FD4F53834283DC01AE5EBE4F2D913C91E4
:1004B0001197FA01EE5EFE4F3183208311961C9254
:1004C0001E92FC010DC0FA01EE5EFE4F408151818B
:1004D000DC01AE5EBE4F8D919C91009741F6FFCF3F
:1004E000F0931002E0930F02808191819093180B9A
:1004F0008093170BEE5FFE4F83E0808378940FC0EC
:10050000FC01EE5EFE4F80819181009709F066CF7D
:100510006F5F7F4F24966B30710509F050CFDF91EC
:10052000CF910895CF93DF93C0910F02D091100225
:10053000FE01E85FFE4F8081882359F1ABE1B2E014
:1005400040E050E0EF018D919C9111970097B1F040
:10055000FC01E05FFE4F20813181232B41F41CC060
:10056000FC01E05FFE4F20813181232BC1F0FC01B3
:10057000EE5EFE4F80819181009791F74F5F5F4F54
:100580008881149690E048175907ECF280E090E0DB
:1005900008C080E090E005C081E090E002C081E00A
:1005A00090E0DF91CF910895BDDF892B31F18091EB
:1005B0000F0290911002FC01EE5FFE4F21E02083BC
:1005C000DC01A85FBE4FEC91F0E0EE0FFF1FEE0FD5
:1005D000FF1FE55EFD4F20813181FC01EE5EFE4F85
:1005E00031832083EC91F0E0EE0FFF1FEE0FFF1F31
:1005F000E55EFD4F91838083DCCE089510928000EC
:10060000E1E8F0E0108280818860808380818260F0
:10061000808380E29EE49093890080938800EFE6D7
:10062000F0E0808182608083089581E081B9099A39
:1006300010981198E3DF10920802109207021092AE
:100640000A021092090210920C0210920B02A7E704
:10065000B2E020E030E044E151E0FD01CA01119236
:100660000197E9F7249FC001259F900D349F900DBD
:10067000112489589D4FFC01EE5FFE4F1082389681
:1006800031832083AC5EBE4F3896B183A0832F5F49
:100690003F4F2730310509F7E7E4F2E080E090E0D2
:1006A0002FEF3FEFDC01AA0FBB1FA959BD4F1196D9
:1006B0003C932E93118210821382128201963496FB
:1006C0008830910579F71092050B1092160B109255
:1006D000150BE3E1F2E087E792E09183808383E00A
:1006E0009AE09383828308952F923F924F925F9274
:1006F0006F927F928F929F92AF92BF92CF92DF9232
:10070000EF92FF920F931F93CF93DF938091090293
:1007100090910A02892B09F0F3C180910702909110
:100720000802892B09F4ECC1F89481E090E09093E1
:100730000A02809309023DDE3324339407E112E07C
:100740006894222422F80F2E44244A94FFE75F2E57
:10075000F02D0F2EF0E06F2EF2E07F2EF02DE091C5
:100760000F02F0911002808191819093180B809379
:10077000170BE05FFE4F80819181892B09F0FFCF3D
:10078000CEDCC0910F02D09110028091170B909196
:10079000180B99838883FE01EB5FFE4FE0818E2F5B
:1007A00090E0FC013197EA30F105C8F68827EE5851
:1007B000FF4F8F4FFBC2D30112964D915C9113975F
:1007C00014966C9114978D919C9171DDF301968331
:1007D0008583EADEC4CFCE5FDE4F3882EADDBFCF4D
:1007E000FE01EE5FFE4F30823696808190E0880FEA
:1007F000991F880F991FBE01855E9D4F3EDDD9DD93
:10080000AECFFE01EE5FFE4F30823E9681E090E07B
:10081000918380833897808190E0880F991F880F9B
:10082000991FBE01855E9D4F28DDC3DD98CFBCDEDC
:1008300096CFFE01EE5FFE4F1082BE0183E192E093
:100840001CDDB7DD8CCFFE01EE5FFE4F208270967F
:10085000118210823C9780819181B20193D25B0119
:10086000C080D180D8012D913C911197211531057F
:1008700041F41196DC93CE931396DC93CE931297AA
:1008800084C07901BAEFEB1ABEEFFB0AF701808151
:100890009181B20177D2FB01D701ED90FC90A616B1
:1008A000B70644F4F801D183C083CE5EDE4F3983AE
:1008B00028836BC0C601B20165D24C01AE16BF06DB
:1008C00079F4C701B2015ED2881699060CF05DC0BA
:1008D000D801CD93DC93CE5EDE4F3983288355C09B
:1008E000F901EE5EFE4F0190F081E02D309709F4A2
:1008F00044C06F01BAEFCB1ABEEFDB0AD6018D916F
:100900009C91B2013FD27B01D6018D919C91B201A5
:1009100039D2AE14BF0494F06E0116C0EF01CA5F65
:10092000DE4F88819981B2012DD27B018881998126
:10093000B20128D2AE14BF043CF4E601F901EE5E28
:10094000FE4FD183C08321C0AE14BF0449F4881682
:10095000990634F4F901EE5EFE4FD182C08215C0D3
:10096000D901AE5EBE4F2D913C91EE5EFE4F0190DF
:10097000F081E02D309791F6E601F901EE5EFE4F31
:10098000D183C083F801D383C28313DDE8CED801BD
:100990006D917C9111976115710549F0FB01EE5E37
:1009A000FE4F808191818D939C9311821082709370
:1009B0000E0260930D02FB01E85FFE4F808190E024
:1009C000880F991F880F991F855E9D4F56DCECDDBF
:1009D00060910F0270911002FB01EE5FFE4FB2E0DA
:1009E000B0838091110290911202880F991F880F95
:1009F000991F895B9D4F41DCDCDCB1CEE091110297
:100A0000F0911202EE0FFF1FEE0FFF1FE95BFD4F8B
:100A100080819181892B09F456C0809111029091B7
:100A20001202FC01EE0FFF1FEE0FFF1FE95BFD4FEF
:100A3000608171816115710591F0DB01AE5EBE4F81
:100A40002D913C911197880F991F880F991FFC01D8
:100A5000E95BFD4F3183208311961C921E92E09139
:100A60001102F0911202DB01A65FBE4F8D919C91A5
:100A7000EE0FFF1FE959FD4F91838083FE01E85F70
:100A8000FE4F9081FB01E85FFE4F8081981768F46C
:100A9000FE01E75FFE4F9081FB01E75FFE4F808321
:100AA000C85FDE4F888131978083FB01EE5FFE4F88
:100AB000308236968081E4E08E9FC0011124855EED
:100AC0009D4FDBDB0CC0E0911102F0911202EE0FA2
:100AD000FF1FE959FD4F8FEF9FEF91838083809136
:100AE0000F0290911002FC01E75FFE4F20812081F0
:100AF000DC01A85FBE4F2C939FEF908355DD2FCE76
:100B0000DF91CF911F910F91FF90EF90DF90CF90E9
:100B1000BF90AF909F908F907F906F905F904F901D
:100B20003F902F900895FC01EE0FFF1FE959FD4FF4
:100B3000208131812F3F3F4F81F4E0910F02F091EE
:100B40001002E65FFE4F20813181880F991FFC0162
:100B5000E959FD4F31832083089520910F02309190
:100B60001002F901EB5FFE4F48E04083F8943396A2
:100B70005081FC01EE0FFF1FE959FD4FA081B181AB
:100B800064E171E0A69FF001A79FF00DB69FF00D04
:100B90001124E158FC4F4081541718F5FC01EE0F69
:100BA000FF1FE959FD4F6081718144E151E0649F6D
:100BB000D001659FB00D749FB00D1124A058BC4F9B
:100BC0006C9160817181F901E85FFE4F2081649F23
:100BD000F001659FF00D749FF00D1124E158FC4F5A
:100BE00020839093120280931102F0CA0895FC01B1
:100BF000EE0FFF1FE959FD4F6081718120910F02B7
:100C000030911002F901E65FFE4F40815181641777
:100C1000750751F4F894359729E0208390931202D8
:100C200080931102D3CA0895FFCF80E090E07BDF6C
:100C3000109A80E090E0DBDFF8CFCF93DF93209134
:100C4000090230910A02232BA1F0F894C0E0D2E00F
:100C5000998388835B834A836C83E0910F02F091D0
:100C60001002EB5FFE4F81E08083B0DA8D819E81C0
:100C700001C01DDBDF91CF91089540E050E060E0BE
:100C800085E196E0DADF40E050E060E08CE596E058
:100C9000D4DF7ECB08958091090290910A02892BBE
:100CA00051F0F894E0910F02F0911002EB5FFE4FCB
:100CB00086E080838BCA089580E090E034DF10984E
:100CC00080E090E094DFE7DFF7CF1F920F920FB63E
:100CD0000F9211240BB60F922F933F934F935F9374
:100CE0006F937F938F939F93AF93BF93EF93FF93F4
:100CF000409117025091180241155105A9F0CA01FF
:100D0000FC01EA5FFE4F20813181232B31F02081ED
:100D100031812150310931832083FC01EE5EFE4F89
:100D200080819181009761F7FA01EA5FFE4F80812F
:100D30009181892B49F4E0910F02F0911002EB5F51
:100D4000FE4F8AE0808342DAFF91EF91BF91AF912D
:100D50009F918F917F916F915F914F913F912F91D3
:100D60000F900BBE0F900FBE0F901F9018955DDC7B
:100D700040E050E060E08DE396E05FDFB5DC80E0CE
:100D800090E00895AA1BBB1B51E107C0AA1FBB1F1F
:100D9000A617B70710F0A61BB70B881F991F5A9507
:100DA000A9F780959095BC01CD010895EE0FFF1F26
:100DB000881F8BBF0790F691E02D1994F894FFCF10
:00000001FF
