S01700004763634170706C69636174696F6E332E7372656359
S113000079C0000089C0000087C0000085C00000DE
S113001083C0000081C000007FC000007DC00000DC
S11300207BC0000079C0000077C0000075C00000EC
S113003073C0000071C000006FC000006DC00000FC
S11300406BC0000006C5000067C0000065C000006A
S113005063C0000061C000005FC000005DC000001C
S11300605BC0000059C0000057C0000055C000002C
S113007053C0000051C000004FC000004DC000003C
S11300804BC0000049C0000047C0000045C000004C
S113009043C0000041C000003FC000003DC000005C
S11300A03BC0000039C0000037C0000035C000006C
S11300B033C0000031C000002FC000002DC000007C
S11300C02BC0000029C0000027C0000025C000008C
S11300D023C0000021C000001FC000001DC000009C
S11300E01BC000009303A303D103DB03B903A803DC
S11300F0CF03800411241FBECFEFD1E2DEBFCDBFFA
S113010000E00CBF2AE0A0E0B2E001C01D92A13ED5
S1130110B207E1F7F0D416C573CF0F921F922F9256
S11301203F924F925F926F927F928F929F92AF9283
S1130130BF92CF92DF92EF92FF920F931F932F9370
S11301403F934F935F936F937F938F939F93AF935B
S1130150BF93CF93DF93EF93FF930CB70F93FFB746
S1130160FF93EDB7FEB70CB7E093DF0AF093E00A14
S1130170E091DD0AF091DE0AEDBFFEBF0CBFFF91F6
S1130180FFBF0F910CBFFF91EF91DF91CF91BF9112
S1130190AF919F918F917F916F915F914F913F911B
S11301A02F911F910F91FF90EF90DF90CF90BF9010
S11301B0AF909F908F907F906F905F904F903F9003
S11301C02F901F900F9018950F921F922F923F928D
S11301D04F925F926F927F928F929F92AF92BF9253
S11301E0CF92DF92EF92FF920F931F932F933F933F
S11301F04F935F936F937F938F939F93AF93BF932B
S1130200CF93DF93EF93FF930CB70F93FFB7FF9355
S1130210EDB7FEB70CB7E093DD0AF093DE0AE09188
S1130220DF0AF091E00AEDBFFEBF0CBFFF91FFBFF4
S11302300F910CBFFF91EF91DF91CF91BF91AF91DF
S11302409F918F917F916F915F914F913F912F91EA
S11302501F910F91FF90EF90DF90CF90BF90AF90E0
S11302609F908F907F906F905F904F903F902F90D2
S11302701F900F900895FC01DB01AF5EBE4F1196F5
S11302801C921E9280819181892B29F47183608351
S1130290738362830895A281B381AF5EBE4F1196CA
S11302A07C936E937383628308950F931F93CF930C
S11302B0DF9320910702309108022830310509F4B8
S11302C05BC0C0911102D0911202209759F0FE0137
S11302D0EF5EFE4F20813181309312022093110290
S11302E01182108220910702309108022F5F3F4F44
S11302F03093080220930702FE01329620E031E099
S1130300DF0189011D9201501040E1F7E150FF4FD8
S113031023EC31E020833197308331971082319779
S1130320808331979083319710829E0127523F4FEB
S11303303983288337969183808332961082369648
S11303405183408333976083DE01A15FBE4F1196D2
S11303501C921E921D9781E08C93808190E0880FFF
S1130360991F880F991FBE01875E9D4F84DFC75F69
S1130370DE4F8881998102C08FEF9FEFDF91CF918B
S11303801F910F9108958091090290910A02892B7F
S113039051F0F894E0910F02F0911002EB5FFE4FE0
S11303A083E0808311CF0895A9E1B2E060E070E0BA
S11303B02D913C9111972115310509F47AC0F90169
S11303C0E15FFE4F80819181892B61F0C90169C091
S11303D0FC01E15FFE4F40815181452B09F061C072
S11303E0C90101C0C901FC01E15FFE4F4081518197
S11303F0452BA1F4DC01AF5EBE4F8D919C9111970A
S1130400660F771F660F771FFB01E75EFD4F918331
S1130410808311961C921E92F90133C0FC01EF5E99
S1130420FE4F80819181009759F1FC01E15FFE4FFD
S113043040815181452BC1F407C0FC01E15FFE4FAF
S113044040815181452B81F4DC01AF5EBE4F4D915B
S11304505C911197F901EF5EFE4F51834083119631
S11304601C921E92FC010DC0F901EF5EFE4F20812B
S11304703181FC01EF5EFE4F808191810097E9F6A6
S1130480FFCFF0931002E0930F028081918190934B
S1130490DE0A8093DD0AEE5FFE4F83E0808378946A
S11304A00895FC01EF5EFE4F80819181009709F071
S11304B08FCF6F5F7F4F14966B30710509F078CF43
S11304C0FFCFCF93DF93C0910F02D0911002FE01B2
S11304D0E85FFE4F8081882359F1A9E1B2E040E052
S11304E050E0EF018D919C9111970097B1F0FC01C0
S11304F0E15FFE4F20813181232B41F41CC0FC01BC
S1130500E15FFE4F20813181232BC1F0FC01EF5EBE
S1130510FE4F80819181009791F74F5F5F4F8881F3
S1130520149690E048175907ECF280E090E008C078
S113053080E090E005C081E090E002C081E090E0BE
S1130540DF91CF910895BDDF892B31F180910F02A6
S113055090911002FC01EE5FFE4F21E02083DC014C
S1130560A85FBE4FEC91F0E0EE0FFF1FEE0FFF1FF0
S1130570E75EFD4F20813181FC01EF5EFE4F318348
S11305802083EC91F0E0EE0FFF1FEE0FFF1FE75EFC
S1130590FD4F9183808308CF089510928000E1E895
S11305A0F0E0108280818860808380818260808313
S11305B080E29EE49093890080938800EFE6F0E067
S11305C0808182608083089581E081B9099A1098BE
S11305D01198E3DF109208021092070210920A02A7
S11305E01092090210920C0210920B02A5E4B2E0E0
S11305F020E030E043E151E0FD01CA01119201978E
S1130600E9F7249FC001259F900D349F900D11247C
S11306108B5B9D4FFC01EE5FFE4F1082379631835A
S11306202083AD5EBE4F3896B183A0832F5F3F4FCA
S11306302730310509F71092CC0A1092DC0A109287
S1130640DB0AE1E1F2E085E492E0918380838AECC5
S113065099E09383828308952F923F924F925F9201
S11306606F927F928F929F92AF92BF92CF92DF92BE
S1130670EF92FF920F931F93CF93DF938091090220
S113068090910A02892B09F05DC180910702909133
S11306900802892B09F456C1F89481E090E0909304
S11306A00A028093090280DE05E112E068942224A4
S11306B022F80F2E66246A94FFE77F2EF02D332450
S11306C033940F2EF0E0CF2EF2E0DF2EF02DE091E8
S11306D00F02F0911002808191819093DE0A809341
S11306E0DD0AE15FFE4F80819181892B09F0FFCF04
S11306F014DDC0910F02D09110028091DD0A909117
S1130700DE0A99838883FE01EB5FFE4FE0818E2F22
S113071090E0FC013197E830F105C8F68827EE58DF
S1130720FF4F8F4F07C2D60112964D915C911397DC
S113073014966C9114978D919C91B7DDF601968374
S1130740858301DFC4CFCE5FDE4F38822DDEBFCF7D
S1130750FE01EE5FFE4F30823696808190E0880F76
S1130760991F880F991FBE01875E9D4F84DD1CDE93
S1130770AECFFE01EE5FFE4F30823D9681E090E009
S1130780918380833797808190E0880F991F880F29
S1130790991FBE01875E9D4F6EDD06DE98CFD3DEC6
S11307A096CFFE01EE5FFE4F1082BE0181E192E022
S11307B062DDFADD8CCFFE01EE5FFE4F20823F96B4
S11307C0118210823B9780819181B3019FD17B017B
S11307D080809180D8012D913C911197211531058C
S11307E041F41196DC93CE931396DC93CE93129737
S11307F085C05901BAEFAB1ABEEFBB0AF50180817F
S11308009181B30183D1FB01D501AD90BC90E61673
S1130810F70644F4F801D183C083CF5EDE4F3983F9
S113082028836CC0C401B30171D12C01EE16FF06FC
S113083079F4C501B3016AD1481659060CF05EC0BB
S1130840D801CD93DC93CF5EDE4F3983288356C025
S1130850F901EF5EFE4F0190F081E02D309709F42D
S113086045C04F01BAEF8B1ABEEF9B0AD4018D919C
S11308709C91B3014BD15B01D4018D919C91B30147
S113088045D1EA14FB04A4F019C04F01BAEF8B1A46
S1130890BEEF9B0AD4018D919C91B30137D15B01CA
S11308A0D4018D919C91B30131D1EA14FB0434F449
S11308B0F901EF5EFE4FD183C08320C0EA14FB042C
S11308C049F44816590634F4F901EF5EFE4FD1831A
S11308D0C08314C0D901AF5EBE4F2D913C91EF5E31
S11308E0FE4F0190F081E02D309779F6F901EF5E2B
S11308F0FE4FD183C083F801D383C28355DDE7CE95
S1130900D8016D917C9111976115710549F0FB0136
S1130910EF5EFE4F808191818D939C9311821082B2
S113092070930E0260930D02FB01E85FFE4F80811D
S113093090E0880F991F880F991F875E9D4F9BDC5D
S113094002DEC5CEDF91CF911F910F91FF90EF9002
S1130950DF90CF90BF90AF909F908F907F906F90DB
S11309605F904F903F902F900895CF93DF93209105
S1130970090230910A02232BA1F0F894C0E0D2E0DE
S1130980998388835B834A836C83E0910F02F0919F
S11309901002EB5FFE4F81E0808316DC8D819E8127
S11309A001C083DCDF91CF91089540E050E065E021
S11309B081E295E0DADFE7CC0895209109023091D5
S11309C00A02232B71F0F89420910F023091100247
S11309D0F901EB5FFE4F44E04083319691838083BD
S11309E0F3CB0895109A109884EF91E0E6DFFACFE4
S11309F08091090290910A02892B51F0F894E091B8
S1130A000F02F0911002EB5FFE4F86E08083DCCB97
S1130A10089580E09DE70197F1F780E09DE7019755
S1130A20F1F780E09DE70197F1F780E09DE70197FA
S1130A30F1F740E050E060E082EF94E096DFD8DF29
S1130A40FECF40E050E061E089E095E08EDFD0DF4A
S1130A50FECF1F920F920FB60F9211240BB60F9276
S1130A602F933F934F935F936F937F938F939F93B2
S1130A70AF93BF93EF93FF934091150250911602E9
S1130A8041155105A9F0CA01FC01EA5FFE4F20811E
S1130A903181232B31F0208131812150310931837F
S1130AA02083FC01EF5EFE4F80819181009761F706
S1130AB0FA01EA5FFE4F80819181892B49F4E0912C
S1130AC00F02F0911002EB5FFE4F88E080837CDB25
S1130AD0FF91EF91BF91AF919F918F917F916F9112
S1130AE05F914F913F912F910F900BBE0F900FBECE
S1130AF00F901F90189568DD40E050E060E085EDB0
S1130B0094E033DFA9DD80E090E00895AA1BBB1BCD
S1130B1051E107C0AA1FBB1FA617B70710F0A61BF9
S1130B20B70B881F991F5A95A9F780959095BC011A
S1130B30CD010895EE0FFF1F881F8BBF0790F6911C
S10B0B40E02D1994F894FFCF95
S9030000FC
