S01700004763634170706C69636174696F6E332E7372656359
S11300007BC000008BC0000089C0000087C00000D6
S113001085C0000083C0000081C000007FC00000D4
S11300207DC000007BC0000079C0000077C00000E4
S113003075C0000073C0000071C000006FC00000F4
S11300406DC0000081C7000069C0000067C00000E7
S113005065C0000063C0000061C000005FC0000014
S11300605DC000005BC0000059C0000057C0000024
S113007055C0000053C0000051C000004FC0000034
S11300804DC000004BC0000049C0000047C0000044
S113009045C0000043C0000041C000003FC0000054
S11300A03DC000003BC0000039C0000037C0000064
S11300B035C0000033C0000031C000002FC0000074
S11300C02DC000002BC0000029C0000027C0000084
S11300D025C0000023C0000021C000001FC0000094
S11300E01DC000007E048A04B604C504A0048F0465
S11300F0B4044A052B06310511241FBECFEFD1E20B
S1130100DEBFCDBF00E00CBF24E1A0E0B2E001C03F
S11301101D92A83DB207E1F770D782C771CF0F9245
S11301201F922F923F924F925F926F927F928F9283
S11301309F92AF92BF92CF92DF92EF92FF920F9372
S11301401F932F933F934F935F936F937F938F935B
S11301509F93AF93BF93CF93DF93EF93FF930CB72A
S11301600F93FFB7FF93EDB7FEB70CB7E093D61428
S1130170F093D714E091D414F091D514EDBFFEBFE1
S11301800CBFFF91FFBF0F910CBFFF91EF91DF9167
S1130190CF91BF91AF919F918F917F916F915F911B
S11301A04F913F912F911F910F91FF90EF90DF900E
S11301B0CF90BF90AF909F908F907F906F905F9003
S11301C04F903F902F901F900F9018950F921F9271
S11301D02F923F924F925F926F927F928F929F9253
S11301E0AF92BF92CF92DF92EF92FF920F931F9341
S11301F02F933F934F935F936F937F938F939F932B
S1130200AF93BF93CF93DF93EF93FF930CB70F9309
S1130210FFB7FF93EDB7FEB70CB7E093D414F09398
S1130220D514E091D614F091D714EDBFFEBF0CBFE6
S1130230FF91FFBF0F910CBFFF91EF91DF91CF9121
S1130240BF91AF919F918F917F916F915F914F91EA
S11302503F912F911F910F91FF90EF90DF90CF90DE
S1130260BF90AF909F908F907F906F905F904F90D2
S11302703F902F901F900F900895119884EF91E074
S11302804DD6FBCF119A84EF91E048D6FBCF10985E
S113029084EF91E043D6FBCF109A84EF91E03ED6F1
S11302A0FBCF40E050E065E08DE391E013D640E001
S11302B050E065E082E491E00DD640E050E064E077
S11302C087E491E007D640E050E064E08CE491E0FC
S11302D001D63FC00895FFCFFC01DB01AE5EBE4FE7
S11302E011961C921E9280819181892B29F471832D
S11302F06083738362830895A281B381AE5EBE4F2F
S113030011967C936E93738362830895FC018081BC
S113031091810097B1F0228133818217930729F4E8
S1130320118210821382128207C0DC01AE5EBE4FBE
S11303302D913C9131832083FC01EE5EFE4F1182AE
S11303401082089580E593ECA0E0B0E00197F1F706
S11303500895CF93CFB7F894E0910F02F091100273
S1130360EB5FFE4F83E0808331DFCFBFCF910895F1
S1130370CF93DF93C0910F02D0911002FE01E85F8A
S1130380FE4F8081882359F1ACE1B2E040E050E0B7
S1130390EF018D919C9111970097B1F0FC01E05F02
S11303A0FE4F20813181232B41F41CC0FC01E05F0E
S11303B0FE4F20813181232BC1F0FC01EE5EFE4F04
S11303C080819181009791F74F5F5F4F88811496E8
S11303D090E048175907ECF280E090E008C080E014
S11303E090E005C081E090E002C081E090E0DF9100
S11303F0CF91089510928000E1E8F0E010828081AE
S11304008860808380818260808380E29EE4909310
S1130410890080938800EFE6F0E080818260808329
S1130420089580911102823081F028F4882349F0E4
S1130430813049F00895843061F048F08530B1F09E
S11304400895409A0895419A0895429A0895439AC6
S1130450089588B18F6088B975DF74DF73DF88B160
S1130460807F88B96FDF6EDF6DDFF3CF88B189607D
S113047088B968DF67DF66DF88B1867F88B962DFA5
S113048061DF60DFF3CFCF93DF9380910F02909110
S11304901002FC01EE5FFE4F2081233021F4805CCA
S11304A0934109F0C1C0CCE1D2E040E050E0A88122
S11304B0B981109709F4ABC0FD01E05FFE4F808164
S11304C09181892B61F0CD019AC0FC01E05FFE4F60
S11304D020813181232B09F092C0CD0101C0CD01CF
S11304E0FC01E05FFE4F20813181232B61F5FA018D
S11304F0EE0FFF1FEE0FFF1FE45EFD4F22813381DD
S11305008217930761F4440F551F440F551FFA01D6
S1130510E45EFD4F13821282118210820EC0FC0130
S1130520EE5EFE4F20813181440F551F440F551F4D
S1130530FA01E45EFD4F31832083FC01EE5EFE4F41
S1130540118210824BC0FC01EE5EFE4F80819181CE
S11305500097F1F1FC01E05FFE4F20813181232BF4
S113056059F507C0FC01E05FFE4F20813181232B48
S113057019F5FA01EE0FFF1FEE0FFF1FE45EFD4FAA
S1130580228133818217930749F4440F551F440F86
S1130590551FFA01E45EFD4FB383A283FC01EE5EB6
S11305A0FE4F20813181AE5EBE4F11963C932E9357
S11305B011821082DC0112C0AE5EBE4F0D90BC9160
S11305C0A02DFC01EE5EFE4F80819181009751F6D3
S11305D082E08093110225DFA0E0B0E0B093100226
S11305E0A0930F028D919C9111979093D5148093B1
S11305F0D414AE5FBE4F83E08C93789415C0FC0195
S1130600EE5EFE4F80819181009709F05ECF4F5FCF
S11306105F4F24964B30510509F049CF80EC93E1AC
S11306209093100280930F02DF91CF910895A0DE82
S1130630892B31F180910F0290911002FC01EE5F41
S1130640FE4F21E02083DC01A85FBE4FEC91F0E077
S1130650EE0FFF1FEE0FFF1FE45EFD4F208131817F
S1130660FC01EE5EFE4F31832083EC91F0E0EE0F4F
S1130670FF1FEE0FFF1FE45EFD4F9183808303CFC6
S11306800895CF92DF92FF920F931F93CF93DF933E
S11306908C01F62E6A01809107029091080240971E
S11306A019F410921102BDDE2BE0F21629F084E158
S11306B092E02CDEEC0102C0C0ECD3E18091070291
S11306C09091080201969093080280930702FE011C
S11306D0329680E091E0DF019C011D922150304070
S11306E0E1F7E150FF4F89EA91E0808331979083ED
S11306F0319710823197008331971083319710829C
S1130700CE0187529F4F9983888337961183008344
S1130710329610823796D182C0823497F082DE01FD
S1130720A75FBE4F8FEF8C93179611961C921E9263
S11307301E9781E08C93808190E0880F991F880F29
S1130740991FBE01845E9D4FC7DDC65FDE4F888161
S11307509981DF91CF911F910F91FF90DF90CF90FE
S11307600895389A399A3A9A3B9A4098419842980F
S1130770439840DE109208021092070210920A0277
S11307801092090210920C0210920B02A0E8B2E03F
S113079020E030E044E151E0FD01CA0111920197EB
S11307A0E9F7249FC001259F900D349F900D1124DB
S11307B080589D4FFC01EE5FFE4F108238963183C6
S11307C02083AC5EBE4F3896B183A0832F5F3F4F2A
S11307D02F30310509F780E090E0FC01EE0FFF1F98
S11307E0EE0FFF1FEE0FFF1FE81BF90BE85BFD4F39
S11307F0108212821182A381B4811D921C92A38162
S1130800B48113961C921E92129716821582019639
S11308108830910511F71092AE131092BF13109205
S1130820BE13E4E1F2E080E892E0918380838CEAF5
S113083092E19383828340E050E06BE08BE691E0A9
S113084020CF0895AF92BF92CF92DF92EF92FF92A2
S11308500F931F93CF93DF938091090290910A0223
S1130860892B09F02CC38091070290910802892BEF
S113087009F425C3F89481E090E090930A028093F0
S1130880090201DEDD24D394AA24AA940F2EF5E0F4
S1130890BF2EF02D6894CC24C1F8EE24E394F12CFF
S11308A000E012E0E0910F02F0911002808191814A
S11308B09093D5148093D414E05FFE4F808191818E
S11308C0892B09F0AEDD2BDCC0910F02D091100210
S11308D08091D4149091D51499838883FE01EB5FA1
S11308E0FE4FE0818E2F90E0FC013197EA30F10554
S11308F0C8F68827EE58FF4F8F4F8AC3F80142810C
S11309005381648180819181BCDEF8019683858363
S11309108EDEC8CFCE5FDE4FD882B5DDC3CFFE01F9
S1130920EE5FFE4FD0823696808190E0880F991F4B
S1130930880F991FBE01845E9D4FCEDCA4DDB2CF2B
S1130940FE01EE5FFE4FD0823E96F182E082389740
S1130950808190E0880F991F880F991FBE01845EE3
S11309609D4FBADC90DD9ECF62DE9CCFF3E1C03CAC
S1130970DF0709F497CFFE01EE5FFE4F1082BE0140
S113098084E192E0A9DC7FDD8DCFFE01EE5EFE4FB7
S1130990118210822091180230911902211531051B
S11309A039F4E8E1F2E0D183C083D383C28357C032
S11309B0FE01EA5FFE4F40815181F901EA5FFE4F7B
S11309C0808191814817590748F4D0931902C09344
S11309D01802CE5EDE4F3983288341C0F901EE5EF2
S11309E0FE4F80819181009789F1FE01EA5FFE4FFD
S11309F060817181FC01EA5FFE4F4081518164177F
S1130A00750770F0FE01EA5FFE4F14C060817181CA
S1130A10DC01AA5FBE4F4D915C916417750750F4D9
S1130A20F901EE5EFE4FD183C083CE5EDE4F998323
S1130A30888315C0D901AE5EBE4F2D913C91DC0177
S1130A40AE5EBE4F8D919C91009701F7F901EE5E69
S1130A50FE4FD183C083D0931B02C0931A0213DDCF
S1130A6021CF88E192E052DC90930E0280930D0234
S1130A70FC01EE5FFE4FD0823696208130E0220FDB
S1130A80331F220F331FBC01C901845E9D4F24DC38
S1130A90CEDD08CF8091120290911302FC01EE0F7B
S1130AA0FF1FEE0FFF1FEE0FFF1FE81BF90BE85BA4
S1130AB0FD4F8081813099F580911202909113024B
S1130AC0FC01EE0FFF1FEE0FFF1FEE0FFF1FE81BD1
S1130AD0F90BE85BFD4FC0828091120290911302E2
S1130AE0FC01EE0FFF1FEE0FFF1FEE0FFF1FE81BB1
S1130AF0F90BE85BFD4FD283C18380911202909180
S1130B001302FC01EE0FFF1FEE0FFF1FEE0FFF1F7E
S1130B10E81BF90BE85BFD4FF682E582C3CE8091BA
S1130B20120290911302FC01EE0FFF1FEE0FFF1F44
S1130B30EE0FFF1FE81BF90BE85BFD4F808182304D
S1130B4049F58091120290911302FC01EE0FFF1FF0
S1130B50EE0FFF1FEE0FFF1FE81BF90BE85BFD4FC5
S1130B6081819281C817D907A9F4809112029091CA
S1130B701302FC01EE0FFF1FEE0FFF1FEE0FFF1F0E
S1130B80E81BF90BE85BFD4F8581968101969683FE
S1130B90858388CEFE01EE5FFE4FC08280911202F3
S1130BA090911302FC01EE0FFF1FEE0FFF1FEE0FDB
S1130BB0FF1FE81BF90BE85BFD4F83819481BE01A5
S1130BC08BDB8091120290911302FC01EE0FFF1F48
S1130BD0EE0FFF1FEE0FFF1FE81BF90BE85BFD4F45
S1130BE00180F281E02DE85FFE4F9081FE01E85F15
S1130BF0FE4F8081981768F580911202909113023C
S1130C00FC01EE0FFF1FEE0FFF1FEE0FFF1FE81B8F
S1130C10F90BE85BFD4F0180F281E02DE75FFE4FA9
S1130C2080818091120290911302FC01EE0FFF1F4C
S1130C30EE0FFF1FEE0FFF1FE81BF90BE85BFD4FE4
S1130C400180F281E02DC85FDE4F8881E85FFE4FAE
S1130C50808319DC27CE8091120290911302FC014B
S1130C60EE0FFF1FEE0FFF1FEE0FFF1FE81BF90B28
S1130C70E85BFD4F81819281C817D90721F0B092BA
S1130C801102CFDB0FCE8091120290911302FC016E
S1130C90EE0FFF1FEE0FFF1FEE0FFF1FE81BF90BF8
S1130CA0E85BFD4F8081823041F580911202909182
S1130CB01302FC01EE0FFF1FEE0FFF1FEE0FFF1FCD
S1130CC0E81BF90BE85BFD4F858196810297A8F03C
S1130CD08091120290911302FC01EE0FFF1FEE0FA0
S1130CE0FF1FEE0FFF1FE81BF90BE85BFD4F85812B
S1130CF09681019796838583D5CD80911202909138
S1130D001302FC01EE0FFF1FEE0FFF1FEE0FFF1F7C
S1130D10E81BF90BE85BFD4F0380F481E02D808133
S1130D209181892B09F4A9C0809112029091130238
S1130D30FC01EE0FFF1FEE0FFF1FEE0FFF1FE81B5E
S1130D40F90BE85BFD4F83819481E0DABC0180916B
S1130D50120290911302FC01EE0FFF1FEE0FFF1F12
S1130D60EE0FFF1FE81BF90BE85BFD4F0180F281DA
S1130D70E02DE85FFE4F9081FB01E85FFE4F80812C
S1130D808917D8F4319680818091120290911302D0
S1130D90FC01EE0FFF1FEE0FFF1FEE0FFF1FE81BFE
S1130DA0F90BE85BFD4F0180F281E02DE85FFE4F17
S1130DB08081FB01E85FFE4F808380911202909155
S1130DC01302FC01EE0FFF1FEE0FFF1FEE0FFF1FBC
S1130DD0E81BF90BE85BFD4F81819281209112029F
S1130DE030911302F901EE0FFF1FEE0FFF1FEE0FFC
S1130DF0FF1FE21BF30BE85BFD4F0180F281E02D46
S1130E00E75FFE4F2081FC01E85FFE4F2083809165
S1130E10120290911302FC01EE0FFF1FEE0FFF1F51
S1130E20EE0FFF1FE81BF90BE85BFD4F0180F28119
S1130E30E02DE75FFE4FA082809112029091130291
S1130E40FC01EE0FFF1FEE0FFF1FEE0FFF1FE81B4D
S1130E50F90BE85BFD4F72836183FB01EE5FFE4F8C
S1130E60D0823696808190E0880F991F880F991F51
S1130E70845E9D4F31DADBDB15CD809112029091B7
S1130E801302FC01EE0FFF1FEE0FFF1FEE0FFF1FFB
S1130E90E81BF90BE85BFD4FD08280911202909120
S1130EA01302FC01EE0FFF1FEE0FFF1FEE0FFF1FDB
S1130EB0E81BF90BE85BFD4F16821582F3CCDF913A
S1130EC0CF911F910F91FF90EF90DF90CF90BF9043
S1130ED0AF9008951F93CF93DF931FB7209109021A
S1130EE030910A02232BA9F0F894C0E0D2E0998350
S1130EF088835B834A836C83E0910F02F091100234
S1130F00EB5FFE4F81E0808361D91FBF8D819E819D
S1130F1001C0B7DBDF91CF911F910895CF93AC014E
S1130F20CFB7F89420910F0230911002F901EB5FD2
S1130F30FE4F94E09083339790833496518340839B
S1130F4045D9CFBFCF9108951F920F920FB60F923C
S1130F5011240BB60F922F933F934F935F936F938C
S1130F607F938F939F93AF93BF93CF93EF93FF930D
S1130F7040911802509119024115510551F1CA01CD
S1130F80FC01EA5FFE4F20813181232B31F0208167
S1130F9031812150310931832083FC01EE5EFE4F03
S1130FA080819181009761F70DC0CFB7F894E091EB
S1130FB00F02F0911002EB5FFE4F8AE0808306D9A6
S1130FC0CFBF07C0FA01EA5FFE4F80819181892B70
S1130FD061F3FF91EF91CF91BF91AF919F918F9169
S1130FE07F916F915F914F913F912F910F900BBE25
S1130FF00F900FBE0F901F901895B3DB40E050E0A8
S113100060E081E591E066DF1DDC80E090E008951A
S1131010EE0FFF1F881F8BBF0790F691E02D1994E8
S1071020F894FFCF6E
S9030000FC
