S01700004763634170706C69636174696F6E332E7372656359
S11300007BC000008BC0000089C0000087C00000D6
S113001085C0000083C0000081C000007FC00000D4
S11300207DC000007BC0000079C0000077C00000E4
S113003075C0000073C0000071C000006FC00000F4
S11300406DC00000D3C5000069C0000067C0000097
S113005065C0000063C0000061C000005FC0000014
S11300605DC000005BC0000059C0000057C0000024
S113007055C0000053C0000051C000004FC0000034
S11300804DC000004BC0000049C0000047C0000044
S113009045C0000043C0000041C000003FC0000054
S11300A03DC000003BC0000039C0000037C0000064
S11300B035C0000033C0000031C000002FC0000074
S11300C02DC000002BC0000029C0000027C0000084
S11300D025C0000023C0000021C000001FC0000094
S11300E01DC000003504450471047B045B044A040C
S11300F06F04330548051D0511241FBECFEFD1E25F
S1130100DEBFCDBF00E00CBF2BE0A0E0B2E001C039
S11301101D92AC31B207E1F7BDD5E3C571CF0F92A3
S11301201F922F923F924F925F926F927F928F9283
S11301309F92AF92BF92CF92DF92EF92FF920F9372
S11301401F932F933F934F935F936F937F938F935B
S11301509F93AF93BF93CF93DF93EF93FF930CB72A
S11301600F93FFB7FF93EDB7FEB70CB7E0931A0BED
S1130170F0931B0BE091180BF091190BEDBFFEBF30
S11301800CBFFF91FFBF0F910CBFFF91EF91DF9167
S1130190CF91BF91AF919F918F917F916F915F911B
S11301A04F913F912F911F910F91FF90EF90DF900E
S11301B0CF90BF90AF909F908F907F906F905F9003
S11301C04F903F902F901F900F9018950F921F9271
S11301D02F923F924F925F926F927F928F929F9253
S11301E0AF92BF92CF92DF92EF92FF920F931F9341
S11301F02F933F934F935F936F937F938F939F932B
S1130200AF93BF93CF93DF93EF93FF930CB70F9309
S1130210FFB7FF93EDB7FEB70CB7E093180BF0935D
S1130220190BE0911A0BF0911B0BEDBFFEBF0CBF35
S1130230FF91FFBF0F910CBFFF91EF91DF91CF9121
S1130240BF91AF919F918F917F916F915F914F91EA
S11302503F912F911F910F91FF90EF90DF90CF90DE
S1130260BF90AF909F908F907F906F905F904F90D2
S11302703F902F901F900F900895FC01DB01AE5E1C
S1130280BE4F11961C921E9280819181892B29F474
S113029071836083738362830895A281B381AE5EA8
S11302A0BE4F11967C936E93738362830895FC0111
S11302B0808191810097B1F0228133818217930765
S11302C029F4118210821382128207C0DC01AE5E0F
S11302D0BE4F2D913C9131832083FC01EE5EFE4F95
S11302E011821082089580E593ECA0E0B0E00197BC
S11302F0F1F7089508958091090290910A02892BDB
S113030051F0F894E0910F02F0911002EB5FFE4F70
S113031083E080835BCF0895CF93DF93C0910F0276
S1130320D0911002FE01E85FFE4F8081882359F1CD
S1130330ACE1B2E040E050E0EF018D919C91119767
S11303400097B1F0FC01E05FFE4F20813181232B47
S113035041F41CC0FC01E05FFE4F20813181232B5E
S1130360C1F0FC01EE5EFE4F80819181009791F710
S11303704F5F5F4F8881149690E048175907ECF25D
S113038080E090E008C080E090E005C081E090E06B
S113039002C081E090E0DF91CF9108951092800037
S11303A0E1E8F0E01082808188608083808182604F
S11303B0808380E29EE49093890080938800EFE636
S11303C0F0E0808182608083089581E081B9099A98
S11303D010981198389A399A3A9A3B9A40984198C9
S11303E042984398DBDF10920802109207021092A1
S11303F00A021092090210920C0210920B02A8E752
S1130400B2E020E030E044E151E0FD01CA01119284
S11304100197E9F7249FC001259F900D349F900D0B
S1130420112488589D4FFC01EE5FFE4F10823896D0
S113043031832083AC5EBE4F3896B183A0832F5F97
S11304403F4F2730310509F7E8E4F2E080E090E01F
S11304502FEF3FEFDC01AA0FBB1FA859BD4F119628
S11304603C932E9311821082138212820196349649
S11304708830910579F71092060B1092170B1092A1
S1130480160BE4E1F2E088E792E09183808384E054
S11304909AE093838283089580911102823081F0DF
S11304A028F4882349F0813049F00895843061F0BC
S11304B048F08530B1F00895409A0895419A08951E
S11304C0429A0895439A089588B18F6088B90BDFE2
S11304D00ADF09DF88B1807F88B905DF04DF03DF25
S11304E0F3CF88B1896088B9FEDEFDDEFCDE88B119
S11304F0867F88B9F8DEF7DEF6DEF3CFCF93DF939D
S1130500CCE1D2E040E050E0A881B981109709F431
S1130510A2C0FD01E05FFE4F80819181892B61F0D3
S1130520CD0191C0FC01E05FFE4F20813181232B7E
S113053009F089C0CD0101C0CD01FC01E05FFE4F8F
S113054020813181232B31F5FA01EE0FFF1FEE0FCD
S1130550FF1FE45EFD4F228133818217930749F424
S1130560FA01EE0FFF1FEE0FFF1FE45EFD4F138233
S11305701282FC01EE5EFE4F80819181440F551F73
S1130580440F551FEA01C45EDD4F998388831182AD
S1130590108248C0FC01EE5EFE4F8081918100977D
S11305A0F1F1FC01E05FFE4F20813181232B59F5ED
S11305B007C0FC01E05FFE4F20813181232B19F538
S11305C0FA01EE0FFF1FEE0FFF1FE45EFD4F2281C5
S11305D033818217930749F4440F551F440F551F65
S11305E0FA01E45EFD4FB383A283FC01EE5EFE4F8D
S11305F020813181AE5EBE4F11963C932E931182C1
S11306001082DC010FC0AE5EBE4F0D90BC91A02DD8
S1130610FC01EE5EFE4F80819181009751F63CDF34
S1130620A0E0B0E0B0931002A0930F028D919C91D2
S113063011979093190B8093180BAE5FBE4F83E014
S11306408C9378940FC0FC01EE5EFE4F8081918103
S1130650009709F067CF4F5F5F4F24964B305105E9
S113066009F052CFDF91CF91089556DE892B31F1F5
S113067080910F0290911002FC01EE5FFE4F21E089
S11306802083DC01A85FBE4FEC91F0E0EE0FFF1F6A
S1130690EE0FFF1FE45EFD4F20813181FC01EE5E11
S11306A0FE4F31832083EC91F0E0EE0FFF1FEE0F3D
S11306B0FF1FE45EFD4F9183808320CF0895DF9276
S11306C0EF92FF920F931F93CF93DF938C01D62E5B
S11306D07A018091070290910802089719F4109208
S11306E01102DADE84E192E0E2DDEC01809107029E
S11306F09091080201969093080280930702FE01EC
S1130700329680E091E0DF019C011D92215030403F
S1130710E1F7E150FF4F8BE791E0808331979083BD
S1130720319710823197008331971083319710826B
S1130730CE0187529F4F9983888337961183008314
S1130740329610823796F182E0823497D082DE01AD
S1130750A75FBE4F8FEF8C93179611961C921E9233
S11307601E9781E08C93808190E0880F991F880FF9
S1130770991FBE01845E9D4F80DDC65FDE4F888178
S11307809981DF91CF911F910F91FF90EF90DF90AE
S113079008951092110280CE08952F923F924F92A5
S11307A05F926F927F928F929F92AF92BF92CF92FD
S11307B0DF92EF92FF920F931F93CF93DF93809179
S11307C0090290910A02892B09F0CFC18091070296
S11307D090910802892B09F4C8C1F89481E090E053
S11307E090930A028093090289DEBB24B39468942F
S11307F0AA24A1F80F2E44244A94FFE75F2EF02D7B
S113080022242394312C0F2EF0E06F2EF2E07F2E61
S1130810F02DE0910F02F09110028081918190936C
S1130820190B8093180BE05FFE4F80819181892B17
S113083009F032DE74DCC0910F02D0911002809175
S1130840180B9091190B99838883FE01EB5FFE4F7F
S1130850E0818E2F90E0FC013197EA30F105C8F673
S11308608827EE58FF4F8F4F34C2D30112964D9113
S11308705C91139714966C9114978D919C911FDF42
S1130880F30196838583F1DEC4CFCE5FDE4FB88259
S113089035DEBFCFFE01EE5FFE4FB082369680811B
S11308A090E0880F991F880F991FBE01845E9D4FA9
S11308B0E4DC24DEAECFFE01EE5FFE4FB0823E9656
S11308C0318220823897808190E0880F991F880FA9
S11308D0991FBE01845E9D4FD0DC10DE9ACFC5DE29
S11308E098CFFE01EE5FFE4F1082BE0184E192E0DC
S11308F0C4DC04DE8ECFFE01EE5FFE4F84E0808315
S11309007096118210823C9780819181B201CDD181
S11309106B01E080F180E0911802F09119023097A8
S113092039F4E8E1F2E0D183C083D383C28383C086
S11309309F012A5F3E4FD9018D919C91B201B5D19F
S11309408B01D9012D913C91C616D7064CF4D09356
S11309501902C0931802CE5EDE4FF983E8836BC0A0
S1130960C701B201A2D14C01C016D10681F4C9015C
S1130970B2019BD1881699060CF05DC0D093190280
S1130980C0931802CE5EDE4FF983E88354C0DF01C2
S1130990AE5EBE4F2D913C912115310509F443C043
S11309A07901BAEFEB1ABEEFFB0AD7018D919C9146
S11309B0B2017BD18B01D7018D919C91B20175D18C
S11309C0C016D10694F07E0115C0E901CA5FDE4F5E
S11309D088819981B20169D18B0188819981B201A1
S11309E064D1C016D10634F4E701EE5EFE4FD18324
S11309F0C08321C0C016D10641F4881699062CF490
S1130A00EE5EFE4FF182E08216C0EE5EFE4F019074
S1130A10F081E02DD901AE5EBE4F2D913C912115A0
S1130A20310599F6E701EE5EFE4FD183C083D09382
S1130A301B02C0931A0262DDECCE88E192E037DC3F
S1130A4090930E0280930D02FC01E85FFE4F20811B
S1130A5030E0220F331F220F331FBC01C901845E13
S1130A609D4F0BDC02DE60910F0270911002FB01BE
S1130A70EE5FFE4FA0828091120290911302880FC4
S1130A80991F880F991F885B9D4FF7DB37DDC1CE17
S1130A90E0911202F0911302EE0FFF1FEE0FFF1F01
S1130AA0E85BFD4F80819181892B09F441C08091DD
S1130AB0120290911302880F991F880F991F885B67
S1130AC09D4FF5DBBC01E0911202F0911302DC01B1
S1130AD0A65FBE4F8D919C91EE0FFF1FE859FD4F0D
S1130AE091838083FE01E85FFE4F9081FB01E85F04
S1130AF0FE4F8081981768F4FE01E75FFE4F9081F6
S1130B00FB01E75FFE4F8083C85FDE4F888131972A
S1130B108083FB01EE5FFE4FB0823696808190E0C9
S1130B20880F991F880F991F845E9D4FA6DB0CC008
S1130B30E0911202F0911302EE0FFF1FE859FD4FEE
S1130B408FEF9FEF9183808380910F029091100229
S1130B50DC01A75FBE4F2C912C91FC01E85FFE4F96
S1130B6020839FEF9C9381DD54CEDF91CF911F9121
S1130B700F91FF90EF90DF90CF90BF90AF909F9038
S1130B808F907F906F905F904F903F902F9008953B
S1130B90CF93DF932091090230910A02232BA1F015
S1130BA0F894C0E0D2E0998388835B834A836C83A2
S1130BB0E0910F02F0911002EB5FFE4F81E0808321
S1130BC005DB8D819E8101C07ADDDF91CF9108958F
S1130BD040E050E060E089EC93E0DADF40E050E090
S1130BE060E08AE791E0D4DF86CB08951F920F92EC
S1130BF00FB60F9211240BB60F922F933F934F937E
S1130C005F936F937F938F939F93AF93BF93EF9370
S1130C10FF9340911802509119024115510539F181
S1130C20CA01FC01EA5FFE4F20813181232B31F0A0
S1130C30208131812150310931832083FC01EE5E12
S1130C40FE4F80819181009761F70AC0E0910F0205
S1130C50F0911002EB5FFE4F8AE08083B7DA07C0A1
S1130C60FA01EA5FFE4F80819181892B79F3FF912C
S1130C70EF91BF91AF919F918F917F916F915F9110
S1130C804F913F912F910F900BBE0F900FBE0F907D
S1130C901F9018959ADB40E050E060E088EE95E004
S1130CA077DF7BDD80E090E00895AA1BBB1B51E158
S1130CB007C0AA1FBB1FA617B70710F0A61BB70BC8
S1130CC0881F991F5A95A9F780959095BC01CD016D
S1130CD00895EE0FFF1F881F8BBF0790F691E02D3C
S1090CE01994F894FFCF03
S9030000FC
