S01700004763634170706C69636174696F6E332E7372656359
S113000071C0000081C000007FC000007DC00000FE
S11300107BC0000079C0000077C0000075C00000FC
S113002073C0000071C000006FC000006DC000000C
S11300306BC0000069C0000067C0000065C000001C
S113004063C0000042C500005FC000005DC0000046
S11300505BC0000059C0000057C0000055C000003C
S113006053C0000051C000004FC000004DC000004C
S11300704BC0000049C0000047C0000045C000005C
S113008043C0000041C000003FC000003DC000006C
S11300903BC0000039C0000037C0000035C000007C
S11300A033C0000031C000002FC000002DC000008C
S11300B02BC0000029C0000027C0000025C000009C
S11300C023C0000021C000001FC000001DC00000AC
S11300D01BC0000019C0000017C0000015C00000BC
S11300E013C0000011241FBECFEFD1E2DEBFCDBF8D
S11300F000E00CBF2AE0A0E0B2E001C01D92AB3DDD
S1130100B207E1F7ECD4F6C47BCF0F921F922F9283
S11301103F924F925F926F927F928F929F92AF9293
S1130120BF92CF92DF92EF92FF920F931F932F9380
S11301303F934F935F936F937F938F939F93AF936B
S1130140BF93CF93DF93EF93FF930CB70F93FFB756
S1130150FF93EDB7FEB70CB7E093D90AF093DA0A30
S1130160E091D70AF091D80AEDBFFEBF0CBFFF9112
S1130170FFBF0F910CBFFF91EF91DF91CF91BF9122
S1130180AF919F918F917F916F915F914F913F912B
S11301902F911F910F91FF90EF90DF90CF90BF9020
S11301A0AF909F908F907F906F905F904F903F9013
S11301B02F901F900F9018950F921F922F923F929D
S11301C04F925F926F927F928F929F92AF92BF9263
S11301D0CF92DF92EF92FF920F931F932F933F934F
S11301E04F935F936F937F938F939F93AF93BF933B
S11301F0CF93DF93EF93FF930CB70F93FFB7FF9366
S1130200EDB7FEB70CB7E093D70AF093D80AE091A4
S1130210D90AF091DA0AEDBFFEBF0CBFFF91FFBF10
S11302200F910CBFFF91EF91DF91CF91BF91AF91EF
S11302309F918F917F916F915F914F913F912F91FA
S11302401F910F91FF90EF90DF90CF90BF90AF90F0
S11302509F908F907F906F905F904F903F902F90E2
S11302601F900F9008950F931F93CF93DF932091C6
S11302700702309108022830310509F488C0E09162
S11302800F02F0911002309769F0DF01AF5EBE4FAC
S11302902D913C9111973093100220930F021196E7
S11302A01C921E9220910702309108022F5F3F4F4B
S11302B0309308022093070220E031E0DF01129618
S11302C0ED018901199201501040E1F72EEC31E063
S11302D0A150BF4F2C9311973C9311971C921197E7
S11302E08C9311979C9311971C929F0127523F4F17
S11302F031832083179611969C938E9312961C92A9
S1130300169611965C934E93EF01C85FDE4F688397
S1130310149611961C921E9281E01D978C938881ED
S113032090E01F9611961C921E92DC01AA0FBB1F2F
S1130330AA0FBB1FAD5EBD4F2D913C91232B79F4C9
S1130340880F991F880F991FDC01AD5EBD4F119670
S1130350FC93EE931396FC93EE93129713C0880FBD
S1130360991F880F991FDC01AD5EBD4F1296CD9188
S1130370DC911397CF5EDE4FF983E8831396FC93E9
S1130380EE931297E75FFE4F8081918102C08FEF59
S11303909FEFDF91CF911F910F91089580910902F2
S11303A090910A02892B51F0F894E0910D02F0919A
S11303B00E02EB5FFE4F87E08083FECE0895A3E13B
S11303C0B2E060E070E02D913C9111972115310568
S11303D009F47AC0F901E15FFE4F80819181892B94
S11303E061F0C90169C0FC01E15FFE4F40815181A8
S11303F0452B09F061C0C90101C0C901FC01E15FDD
S1130400FE4F40815181452BA1F4DC01AF5EBE4F0C
S11304108D919C911197660F771F660F771FFB01D3
S1130420ED5EFD4F9183808311961C921E92F9011B
S113043033C0FC01EF5EFE4F80819181009759F13A
S1130440FC01E15FFE4F40815181452BC1F407C09F
S1130450FC01E15FFE4F40815181452B81F4DC01B9
S1130460AF5EBE4F4D915C911197F901EF5EFE4F67
S11304705183408311961C921E92FC010DC0F90118
S1130480EF5EFE4F20813181FC01EF5EFE4F8081E3
S113049091810097E9F6FFCFF0930E02E0930D02ED
S11304A0808191819093D80A8093D70AEE5FFE4FA2
S11304B083E0808378940895FC01EF5EFE4F808191
S11304C09181009709F08FCF6F5F7F4F14966B3047
S11304D0710509F078CFFFCFCF93DF93C0910D0260
S11304E0D0910E02FE01E85FFE4F8081882359F10E
S11304F0A3E1B2E040E050E0EF018D919C911197AF
S11305000097B1F0FC01E15FFE4F20813181232B84
S113051041F41CC0FC01E15FFE4F20813181232B9B
S1130520C1F0FC01EF5EFE4F80819181009791F74D
S11305304F5F5F4F8881149690E048175907ECF29B
S113054080E090E008C080E090E005C081E090E0A9
S113055002C081E090E0DF91CF910895BDDF892B47
S113056031F180910D0290910E02FC01EE5FFE4F7D
S113057021E02083DC01A85FBE4FEC91F0E0EE0F98
S1130580FF1FEE0FFF1FED5EFD4F20813181FC0147
S1130590EF5EFE4F31832083EC91F0E0EE0FFF1FFE
S11305A0EE0FFF1FED5EFD4F9183808308CF08950A
S11305B010928000E1E8F0E01082808188608083FE
S11305C080818260808380E29EE49093890080939E
S11305D08800EFE6F0E0808182608083089581E006
S11305E081B9099A10981198E3DF109208021092C9
S11305F0070210920A021092090210920C02109241
S11306000B02AFE3B2E020E030E043E151E0FD0152
S1130610CA0111920197E9F7249FC001259F900D0B
S1130620349F900D1124815C9D4FFC01EE5FFE4FC1
S11306301082379631832083AD5EBE4F3896B183E6
S1130640A0832F5F3F4F2730310509F71092C60A68
S11306501092D60A1092D50AEFE0F2E08FE392E00E
S11306609183808384EC99E0938382830895CF926D
S1130670DF92FF920F931F93CF93DF938091090230
S113068090910A02892B09F0FDC080910702909194
S11306900802892B09F4F6C0F89481E090E0909365
S11306A00A02809309028BDEFF24F394CC24C394C2
S11306B0D12CCFE0D2E000E012E0E0910D02F09105
S11306C00E02808191819093D80A8093D70AE15FCA
S11306D0FE4F80819181892B09F0FFCF16DDE091D7
S11306E00D02F0910E028091D70A9091D80A91835D
S11306F08083DF01AB5FBE4F8C91833009F462C00D
S113070028F4813061F08230D1F0D7CF863009F4FB
S11307109BC0873009F49AC0853079F615C0D8019A
S113072012964D915C91139714966C9114978D9138
S11307309C9199DDF8019683858310DFBECFEE5F2F
S1130740FE4FF0823CDEB9CFDF01AE5FBE4FFC92BC
S113075016968C9190E0199611961C921E92DC01CB
S1130760AA0FBB1FAA0FBB1FAD5EBD4F2D913C91BD
S1130770232B79F4880F991F880F991FDC01AD5E34
S1130780BD4F1196FC93EE931396FC93EE93129740
S113079017C0880F991F880F991F9C012D5E3D4F2C
S11307A0D90112968D919C9113978F5E9E4FDC0117
S11307B01196FC93EE93D9011396FC93EE93129742
S11307C0FEDD7BCFDF01AE5FBE4FFC921D9611961E
S11307D0DC92CE9217978C9190E0199611961C9208
S11307E01E92DC01AA0FBB1FAA0FBB1FAD5EBD4F3B
S11307F02D913C91232B79F4880F991F880F991F11
S1130800DC01AD5EBD4F1196FC93EE931396FC9301
S1130810EE93129717C0880F991F880F991F9C0198
S11308202D5E3D4FD90112968D919C9113978F5E49
S11308309E4FDC011196FC93EE93D9011396FC9321
S1130840EE931297BCDD39CF89DE37CFDF01AE5F7F
S1130850BE4F1C921F9611961C921E9288819981FC
S1130860892B29F4F983E883FB83EA8309C0AA81ED
S1130870BB81AF5EBE4F1196FC93EE93FB83EA837C
S11308809EDD1BCFDF91CF911F910F91FF90DF90E1
S1130890CF900895CF93DF932091090230910A02FB
S11308A0232BA1F0F894C0E0D2E0998388835B8382
S11308B04A836C83E0910D02F0910E02EB5FFE4FD0
S11308C081E0808379DC8D819E8101C0CCDCDF9165
S11308D0CF91089540E050E065E080EB94E0DADFEA
S11308E05DCD08958091090290910A02892B51F0FF
S11308F0F894E0910D02F0910E02EB5FFE4F85E05B
S113090080835ACC0895D0E0CDE710988D2F9C2F8A
S11309100197F1F78D2F9C2F0197F1F78D2F9C2FC5
S11309200197F1F78D2F9C2F0197F1F7DBDFEDCFC6
S113093080E09DE70197F1F780E09DE70197F1F7EB
S113094080E09DE70197F1F780E09DE70197F1F7DB
S113095040E050E060E082E395E09CDFC3DFFECF3F
S113096040E050E061E088E994E094DFBBDFFECF33
S113097020914803309149032817390799F021E061
S113098030E063E171E0269FF001279FF00D369F70
S1130990F00D1124E85BFC4F408151814817590741
S11309A0F9F402C020E030E043E151E0249FF0017B
S11309B0259FF00D349FF00D1124E25BFC4F21E0E4
S11309C030E03183208320910D0230910E02F90131
S11309D0E75FFE4F408151814817590759F403C01E
S11309E02F5F3F4FD0CFF894F901EB5FFE4F83E0C8
S11309F08083E2CB0895209148033091490328175E
S1130A00390799F021E030E063E171E0269FF001BD
S1130A10279FF00D369FF00D1124E85BFC4F4081B9
S1130A20518148175907D9F402C020E030E083E12E
S1130A3091E0289FF001299FF00D389FF00D1124BB
S1130A40E25BFC4F11821082F894E0910D02F09168
S1130A500E02EB5FFE4F86E08083AECB08952F5FDE
S1130A603F4FD4CF40E050E060E083E894E012DFF1
S1130A70EC0100E01DE7109A202F312F215031099D
S1130A80E9F7802F912F0197F1F7802F912F01978C
S1130A90F1F7802F912F0197F1F7CE0169DFCE0195
S1130AA0AADF202F312F21503109E9F7802F912F10
S1130AB00197F1F7202F312F21503109E9F7202F29
S1130AC0312F21503109E9F7D6CF1F920F920FB67B
S1130AD00F9211240F900FBE0F901F9018957FDD79
S1130AE040E050E060E08AE694E0D4DEC0DD80E0DF
S10B0AF090E00895F894FFCF93
S9030000FC
