S01700004763634170706C69636174696F6E332E7372656359
S113000071C0000081C000007FC000007DC00000FE
S11300107BC0000079C0000077C0000075C00000FC
S113002073C0000071C000006FC000006DC000000C
S11300306BC0000069C0000067C0000065C000001C
S113004063C0000088C200005FC000005DC0000003
S11300505BC0000059C0000057C0000055C000003C
S113006053C0000051C000004FC000004DC000004C
S11300704BC0000049C0000047C0000045C000005C
S113008043C0000041C000003FC000003DC000006C
S11300903BC0000039C0000037C0000035C000007C
S11300A033C0000031C000002FC000002DC000008C
S11300B02BC0000029C0000027C0000025C000009C
S11300C023C0000021C000001FC000001DC00000AC
S11300D01BC0000019C0000017C0000015C00000BC
S11300E013C0000011241FBECFEFD1E2DEBFCDBF8D
S11300F000E00CBF2AE0A0E0B2E001C01D92A437EA
S1130100B207E1F732D23AC27BCF0F921F922F92FD
S11301103F924F925F926F927F928F929F92AF9293
S1130120BF92CF92DF92EF92FF920F931F932F9380
S11301303F934F935F936F937F938F939F93AF936B
S1130140BF93CF93DF93EF93FF930CB70F93FFB756
S1130150FF93EDB7FEB70CB7E093720AF093730AFE
S1130160E091700AF091710AEDBFFEBF0CBFFF91E0
S1130170FFBF0F910CBFFF91EF91DF91CF91BF9122
S1130180AF919F918F917F916F915F914F913F912B
S11301902F911F910F91FF90EF90DF90CF90BF9020
S11301A0AF909F908F907F906F905F904F903F9013
S11301B02F901F900F9018950F921F922F923F929D
S11301C04F925F926F927F928F929F92AF92BF9263
S11301D0CF92DF92EF92FF920F931F932F933F934F
S11301E04F935F936F937F938F939F93AF93BF933B
S11301F0CF93DF93EF93FF930CB70F93FFB7FF9366
S1130200EDB7FEB70CB7E093700AF093710AE09172
S1130210720AF091730AEDBFFEBF0CBFFF91FFBFDE
S11302200F910CBFFF91EF91DF91CF91BF91AF91EF
S11302309F918F917F916F915F914F913F912F91FA
S11302401F910F91FF90EF90DF90CF90BF90AF90F0
S11302509F908F907F906F905F904F903F902F90E2
S11302601F900F9008952DE031E00BC0809104029F
S113027090910502019687709927909305028093C7
S113028004028091040290910502829FF001839FF1
S1130290F00D929FF00D1124E65FFC4F80818130B8
S11302A029F720910402309105028DE091E0289F06
S11302B0F001299FF00D389FF00D1124E85FFD4FE8
S11302C0F0930702E0930602808191819093710A72
S11302D08093700AEE5FFE4F83E080838091040276
S11302E09091050201968770992790930502809357
S11302F00402789408958091020290910302892B5C
S113030051F0F894E0910602F0910702EB5FFE4F82
S113031083E0808351CF0895FC01329620E031E0E0
S1130320DF01A9011D9241505040E1F7E150FF4F18
S11303302BE731E020833197308331971082319756
S1130340608331977083319710829C0127523F4F0D
S1130350DC012D933C93379660837183329610822F
S1130360339781E080830895BC01809100029091CD
S11303700102089751F180910A03882379F0E7E19B
S1130380F4E021E030E09081992351F02F5F3F4F5A
S1130390E35FFE4F28303105B1F702C020E030E0C2
S11303A08091000290910102019690930102809342
S11303B000024DE051E0249FC001259F900D349F21
S11303C0900D1124885F9D4FA7CF0895109280004F
S11303D0E1E8F0E01082808188608083808182601F
S11303E0808380E29EE49093890080938800EFE606
S11303F0F0E0808182608083089581E081B982E0A9
S113040081B910981198E2DF109201021092000253
S1130410109203021092020210920502109204023A
S11304200895CF938091020290910302892B09F0E1
S11304303EC08091000290910102892BC1F1F89491
S113044081E090E090930302809302020CDFC1E00C
S1130450E0910602F0910702808191819093710AE4
S11304608093700A52DEE0910602F09107028091B7
S1130470700A9091710A91838083DF01AB5FBE4F54
S11304808C91823051F0833069F0813009F7ED5F4F
S1130490FE4F8081918168DFDBCFEE5FFE4FC0832A
S11304A0E2DED6CFEE5FFE4F1082DDDED1CFCF91FC
S11304B008952091020230910302232B79F0F894DD
S11304C02091060230910702F901EB5FFE4F41E0F3
S11304D040833297918380836FCE089545CF0895EA
S11304E08091020290910302892B51F0F894E091DB
S11304F00602F0910702EB5FFE4F82E080835CCE40
S11305000895D0E0CDE711988D2F9C2F0197F1F736
S11305108D2F9C2F0197F1F78D2F9C2F0197F1F7C9
S11305208D2F9C2F0197F1F7DBDFEDCFD0E0CDE7E6
S1130530119A8D2F9C2F0197F1F78D2F9C2F0197E6
S1130540F1F78D2F9C2F0197F1F78D2F9C2F019799
S1130550F1F7C6DFEDCF1F920F920FB60F92112461
S11305600F900FBE0F901F90189547DF86E992E019
S1130570A0DF81E892E09DDF54CF0895F894FFCF87
S9030000FC
