:100000007EC0000090C000008EC000008CC00000C8
:100010008AC0000088C0000086C0000084C00000C4
:1000200082C0000080C000007EC000007CC00000D4
:100030007AC0000078C0000076C0000074C00000E4
:1000400072C000000C94F3096EC000006CC0000088
:100050006AC0000068C0000066C0000064C0000004
:1000600062C0000060C000005EC000005CC0000014
:100070005AC0000058C0000056C0000054C0000024
:1000800052C0000050C000004EC000004CC0000034
:100090004AC0000048C0000046C0000044C0000044
:1000A00042C0000040C000003EC000003CC0000054
:1000B0003AC0000038C0000036C0000034C0000064
:1000C00032C0000030C000002EC000002CC0000074
:1000D0002AC0000028C0000026C0000024C0000084
:1000E00022C00000EB04F70423053B050D05FC04CA
:1000F0002105C0057F07D0081209E108A7051124D2
:100100001FBECFEFD1E2DEBFCDBF00E00CBF25E1C7
:10011000A0E0B2E001C01D92AF31B207E1F70E944A
:100120004D0A0C94600A6CCF0F921F922F923F924F
:100130004F925F926F927F928F929F92AF92BF92F7
:10014000CF92DF92EF92FF920F931F932F933F93E3
:100150004F935F936F937F938F939F93AF93BF93CF
:10016000CF93DF93EF93FF930CB70F93FFB7FF93FA
:10017000EDB7FEB70CB7E0931D15F0931E15E09197
:100180001B15F0911C15EDBFFEBF0CBFFF91FFBF0B
:100190000F910CBFFF91EF91DF91CF91BF91AF9184
:1001A0009F918F917F916F915F914F913F912F918F
:1001B0001F910F91FF90EF90DF90CF90BF90AF9085
:1001C0009F908F907F906F905F904F903F902F9077
:1001D0001F900F9018950F921F922F923F924F925F
:1001E0005F926F927F928F929F92AF92BF92CF92C7
:1001F000DF92EF92FF920F931F932F933F934F93B2
:100200005F936F937F938F939F93AF93BF93CF939E
:10021000DF93EF93FF930CB70F93FFB7FF93EDB707
:10022000FEB70CB7E0931B15F0931C15E0911D155C
:10023000F0911E15EDBFFEBF0CBFFF91FFBF0F91E8
:100240000CBFFF91EF91DF91CF91BF91AF919F9143
:100250008F917F916F915F914F913F912F911F915E
:100260000F91FF90EF90DF90CF90BF90AF909F9055
:100270008F907F906F905F904F903F902F901F9046
:100280000F900895129A8EE190E00E94DC0980910F
:100290001715909118150E948F098091171590914C
:1002A00018150E94A3091298FFCF119A8091171573
:1002B000909118150E948F0984E190E00E94DC095A
:1002C0008091191590911A150E948F098AE090E08B
:1002D0000E94DC098091191590911A150E94A309BA
:1002E00080911715909118150E94A3091198FFCFBE
:1002F000109A8AE090E00E94DC0980911915909193
:100300001A150E948F0984E190E00E94DC09809117
:10031000191590911A150E94A3091098FFCF089AF9
:10032000099A0A9A109811981298C6D7909318159E
:1003300080931715C1D790931A158093191540E033
:1003400050E061E082E491E00E94B70940E050E0B3
:1003500062E085E591E00E94B70940E050E063E08B
:1003600088E791E00C94B7090895FFCFFC01DB0109
:10037000AE5EBE4F11961C921E9280819181892B98
:1003800029F471836083738362830895A281B381AA
:10039000AE5EBE4F11967C936E9373836283089515
:1003A000FC01808191810097B1F022813381821715
:1003B000930729F4118210821382128207C0DC0194
:1003C000AE5EBE4F2D913C9131832083FC01EE5EE9
:1003D000FE4F11821082089580E593ECA0E0B0E01A
:1003E0000197F1F70895CF93CFB7F894E0910F02FA
:1003F000F0911002EB5FFE4F83E08083ECDECFBF15
:10040000CF910895CF93DF93C0910F02D091100246
:10041000FE01E85FFE4F8081882359F1ADE4B2E030
:1004200040E050E0EF018D919C9111970097B1F061
:10043000FC01E05FFE4F20813181232B41F41CC081
:10044000FC01E05FFE4F20813181232BC1F0FC01D4
:10045000EE5EFE4F80819181009791F74F5F5F4F75
:100460008881149690E048175907ECF280E090E0FC
:1004700008C080E090E005C081E090E002C081E02B
:1004800090E0DF91CF91089510928000E1E8F0E0D4
:10049000108280818860808380818260808380E296
:1004A0009EE49093890080938800EFE6F0E08081DD
:1004B00082608083089580911102823081F028F457
:1004C000882349F0813049F00895843061F048F084
:1004D0008530B1F00895409A0895419A0895429A5E
:1004E0000895439A089588B18F6088B975DF74DFE5
:1004F00073DF88B1807F88B96FDF6EDF6DDFF3CF88
:1005000088B1896088B968DF67DF66DF88B1867F78
:1005100088B962DF61DF60DFF3CFCF93DF93809133
:100520000F0290911002FC01EE5FFE4F20812330FC
:1005300021F48150944109F0C1C0CDE4D2E040E003
:1005400050E0A881B981109709F4ABC0FD01E05FCC
:10055000FE4F80819181892B61F0CD019AC0FC0111
:10056000E05FFE4F20813181232B09F092C0CD0145
:1005700001C0CD01FC01E05FFE4F20813181232BC2
:1005800061F5FA01EE0FFF1FEE0FFF1FE35BFD4F5A
:10059000228133818217930761F4440F551F440F62
:1005A000551FFA01E35BFD4F138212821182108204
:1005B0000EC0FC01EE5EFE4F20813181440F551FBD
:1005C000440F551FFA01E35BFD4F31832083FC018B
:1005D000EE5EFE4F118210824BC0FC01EE5EFE4FBC
:1005E000808191810097F1F1FC01E05FFE4F208155
:1005F0003181232B59F507C0FC01E05FFE4F2081BC
:100600003181232B19F5FA01EE0FFF1FEE0FFF1FAB
:10061000E35BFD4F228133818217930749F4440F36
:10062000551F440F551FFA01E35BFD4FB383A283AF
:10063000FC01EE5EFE4F20813181AE5EBE4F119611
:100640003C932E9311821082DC0112C0AE5EBE4F2D
:100650000D90BC91A02DFC01EE5EFE4F808191813A
:10066000009751F682E08093110225DFA0E0B0E010
:10067000B0931002A0930F028D919C9111979093CB
:100680001C1580931B15AE5FBE4F83E08C9378944E
:1006900015C0FC01EE5EFE4F80819181009709F04C
:1006A0005ECF4F5F5F4F24964B30510509F049CF25
:1006B00081E094E19093100280930F02DF91CF913B
:1006C0000895A0DE892B31F180910F0290911002E4
:1006D000FC01EE5FFE4F21E02083DC01A85FBE4FEE
:1006E000EC91F0E0EE0FFF1FEE0FFF1FE35BFD4FFD
:1006F00020813181FC01EE5EFE4F31832083EC913D
:10070000F0E0EE0FFF1FEE0FFF1FE35BFD4F918345
:10071000808303CF0895CF92DF92EF92FF921F93D1
:10072000CF93DF937C01162F6A018091070290918D
:100730000802409719F410921102BDDE1B3071F0CF
:1007400085E492E02DDEEC01809107029091080291
:100750000196909308028093070202C0C1E0D4E1A1
:1007600080E091E0FE013296DF019C011D92215054
:100770003040E1F783EF91E0E150FF4F8083319704
:100780009083319710823197E0823197F0823197D0
:100790001082CE0187529F4F998388833796F182CA
:1007A000E082329610823796D182C08234971083CD
:1007B0008FEF319680833796118210821B3071F053
:1007C00081E03E9780833696808190E0880F991F64
:1007D000880F991FBE01835B9D4FC8DDC65FDE4F4A
:1007E00088819981DF91CF911F91FF90EF90DF90E9
:1007F000CF900895389A399A3A9A3B9A40984198FE
:100800004298439841DE109208021092070210921B
:100810000A021092090210920C0210920B02A1EC33
:10082000B2E020E030E044E151E0FD01CA01119264
:100830000197E9F7249FC001259F900D349F900DEB
:1008400011248F539D4FFC01EE5FFE4F10823896AE
:1008500031832083AC5EBE4F3896B183A0832F5F77
:100860003F4F2F30310509F780E090E0FC01EE0F9B
:10087000FF1FEE0FFF1FEE0FFF1FE80FF91FE758D6
:10088000FD4F108212821182148213821682158209
:100890001086178201968830910541F7E5E2F2E073
:1008A00085E492E011821082138212823496E81756
:1008B000F907C1F71092EF13109200141092FF1372
:1008C000E5E4F2E081EC92E0918380838DEE92E1A9
:1008D0009383828340E050E06BE085EB91E01BCF97
:1008E00008952F923F924F925F926F927F928F92D4
:1008F0009F92AF92BF92CF92DF92EF92FF920F93AF
:100900001F93CF93DF938091090290910A02892B64
:1009100009F0BFC48091070290910802892B09F465
:10092000B8C4F89481E090E090930A0280930902A1
:10093000F4DDEE24E394F12C0F2EF3E06F2EF02D76
:100940006894332432F8CC24CA94DC2C0F2EF4E1C2
:100950008F2EF2E09F2EF02DBB24B39422242A94F4
:100960000F2EF5E07F2EF02D6894AA24A1F80F2E0B
:10097000FDE44F2EF2E05F2EF02D00E012E0E0915A
:100980000F02F09110028081918190931C15809349
:100990001B15E05FFE4F80819181892B09F08BDD73
:1009A000C3DBC0910F02D091100280911B15909172
:1009B0001C1599838883FE01EB5FFE4FE0818E2F2B
:1009C00090E0FC013197ED30F105C8F68827EE582C
:1009D000FF4F8F4F6DC5F801428153816481808143
:1009E000918199DEF801968385836BDEC8CFCE5F57
:1009F000DE4FB88292DDC3CFFE01EE5FFE4FB082C4
:100A00003696808190E0880F991F880F991FBE014C
:100A1000835B9D4FABDC81DDB2CFFE01EE5FFE4F0D
:100A2000B0823E96F182E0823897808190E0880F14
:100A3000991F880F991FBE01835B9D4F97DC6DDD69
:100A40009ECF3FDE9CCFF4E1C130DF0709F497CFA2
:100A5000FE01EE5FFE4F1082BE0185E492E086DC6F
:100A60008091070290910802019790930802809369
:100A7000070253DD84CFFE01EE5EFE4F118210822D
:100A80002091490230914A022115310539F4E9E4F7
:100A9000F2E0D183C083D383C28357C0FE01EA5FF3
:100AA000FE4F40815181F901EA5FFE4F80819181C3
:100AB0004817590748F4D0934A02C0934902CE5EC2
:100AC000DE4F3983288341C0F901EE5EFE4F8081FD
:100AD0009181009789F1FE01EA5FFE4F40815181CB
:100AE000FC01EA5FFE4F608171814617570770F085
:100AF000FE01EA5FFE4F14C060817181DC01AA5FD4
:100B0000BE4F4D915C916417750750F4F901EE5E8C
:100B1000FE4FD183C083CE5EDE4F9983888315C09C
:100B2000D901AE5EBE4F2D913C91DC01AE5EBE4F51
:100B30008D919C91009701F7F901EE5EFE4FD183F4
:100B4000C083D0934C02C0934B02E7DC18CF89E4FA
:100B500092E026DC90930E0280930D02FC01EE5F82
:100B6000FE4FB0823696208130E0220F331F220FD5
:100B7000331FBC01C901835B9D4FF8DBA2DDFFCEB3
:100B80008091120290911302FC01EE0FFF1FEE0FF5
:100B9000FF1FEE0FFF1F8E0F9F1FFC01E758FD4F39
:100BA00080818130B1F58091120290911302FC0195
:100BB000EE0FFF1FEE0FFF1FEE0FFF1F8E0F9F1F89
:100BC000FC01E758FD4FA082809112029091130220
:100BD000FC01EE0FFF1FEE0FFF1FEE0FFF1F8E0F2A
:100BE0009F1FFC01E758FD4FD283C1838091120201
:100BF00090911302FC01EE0FFF1FEE0FFF1FEE0F8F
:100C0000FF1F8E0F9F1FFC01E758FD4FF086E78204
:100C1000B6CE8091120290911302FC01EE0FFF1FDD
:100C2000EE0FFF1FEE0FFF1F8E0F9F1FFC01E758F7
:100C3000FD4F8081823051F5809112029091130214
:100C4000FC01EE0FFF1FEE0FFF1FEE0FFF1F8E0FB9
:100C50009F1FFC01E758FD4F81819281C817D9077A
:100C6000A9F48091120290911302FC01EE0FFF1F74
:100C7000EE0FFF1FEE0FFF1FE80FF91FE758FD4FA4
:100C80008781908501969087878379CEFE01EE5FFC
:100C9000FE4FA08280911202909113029C01220FBC
:100CA000331F220F331F220F331F820F931FBE01EA
:100CB00084589D4F5BDB8091120290911302FC01DE
:100CC000EE0FFF1FEE0FFF1FEE0FFF1F8E0F9F1F78
:100CD000FC01E758FD4F0180F281E02DE85FFE4FF7
:100CE0009081FE01E85FFE4F8081891708F005C101
:100CF0008091120290911302FC01EE0FFF1FEE0F84
:100D0000FF1FEE0FFF1F8E0F9F1FFC01E758FD4FC7
:100D10000180F281E02DE75FFE4F80818091120219
:100D200090911302FC01EE0FFF1FEE0FFF1FEE0F5D
:100D3000FF1F8E0F9F1FFC01E758FD4F0180F281BE
:100D4000E02DC85FDE4F8881E85FFE4F8083809191
:100D5000120290911302FC01EE0FFF1FEE0FFF1F16
:100D6000EE0FFF1F8E0F9F1FFC01E758FD4F018004
:100D7000F281E02DE65FFE4F60817181F2012081FA
:100D80003181F901E65FFE4F808191816817790713
:100D900089F50CC028813981D901A65FBE4F8D919C
:100DA0009C9124966817790749F502C0E0E0F0E0CD
:100DB000D901AE5EBE4F8D919C91DF01AA0FBB1F82
:100DC000AA0FBB1FA35BBD4F11969C938E931296E7
:100DD0004D915C9113978417950729F4FD011182B9
:100DE000108213821282F901EE5EFE4F1182108290
:100DF000C90151C0C1E5D2E0E0E0F0E0D901AE5E4A
:100E0000BE4F8D919C91009709F43FC0DC01A65F15
:100E1000BE4F4D915C916417750759F508C0DC0110
:100E2000A65FBE4F4D915C916417750711F5DC010B
:100E3000AE5EBE4F4D915C91D901AE5EBE4F119634
:100E40005C934E93DF01AA0FBB1FAA0FBB1FA35BCE
:100E5000BD4F12964D915C9113978417950719F425
:100E6000FD0133832283FC01EE5EFE4F118210826E
:100E700012C0D901AE5EBE4F2D913C91DC01AE5E39
:100E8000BE4F8D919C91009751F63196EB30F10554
:100E900009F080CF32C0892B81F1809112029091AC
:100EA0001302FC01EE0FFF1FEE0FFF1FEE0FFF1FDF
:100EB0008E0F9F1FFC01E758FD4F61817281809169
:100EC000120290911302FC01EE0FFF1FEE0FFF1FA5
:100ED000EE0FFF1F8E0F9F1FFC01E758FD4F018093
:100EE000F281E02DE85FFE4F808190E0880F991F2E
:100EF000880F991F835B9D4F39DA0FDB40CD8091BE
:100F0000120290911302FC01EE0FFF1FEE0FFF1F64
:100F1000EE0FFF1F8E0F9F1FFC01E758FD4F8181D1
:100F20009281C817D90721F070921102C4DA27CD37
:100F30008091120290911302FC01EE0FFF1FEE0F41
:100F4000FF1FEE0FFF1F8E0F9F1FFC01E758FD4F85
:100F50008081823049F58091120290911302FC0148
:100F6000EE0FFF1FEE0FFF1FEE0FFF1F8E0F9F1FD5
:100F7000FC01E758FD4F878190850297A8F080918A
:100F8000120290911302FC01EE0FFF1FEE0FFF1FE4
:100F9000EE0FFF1FE80FF91FE758FD4F878190857F
:100FA000019790878783EBCC809112029091130276
:100FB000FC01EE0FFF1FEE0FFF1FEE0FFF1F8E0F46
:100FC0009F1FFC01E758FD4F83819481892B09F411
:100FD000C3C080911202909113029C01220F331F13
:100FE000220F331F220F331F820F931F84589D4FF0
:100FF000D7D9BC018091120290911302FC01EE0F2F
:10100000FF1FEE0FFF1FEE0FFF1F8E0F9F1FFC0134
:10101000E758FD4F0180F281E02DE85FFE4F90819F
:10102000FB01E85FFE4F80819817E0F431968081E4
:101030008091120290911302FC01EE0FFF1FEE0F40
:10104000FF1FEE0FFF1F8E0F9F1FFC01E758FD4F84
:101050000180F281E02DE85FFE4F8081FB01E85FB7
:10106000FE4F80838091120290911302FC01EE0FDB
:10107000FF1FEE0FFF1FEE0FFF1F8E0F9F1FFC01C4
:10108000E758FD4F0180F281E02DE75FFE4F808140
:101090008091120290911302FC01EE0FFF1FEE0FE0
:1010A000FF1FEE0FFF1F8E0F9F1FFC01E758FD4F24
:1010B000218132818091120290911302FC01EE0F86
:1010C000FF1FEE0FFF1FEE0FFF1F8E0F9F1FFC0174
:1010D000E758FD4F0180F281E02DE75FFE4F8081F0
:1010E000F901E85FFE4F8083809112029091130214
:1010F000FC01EE0FFF1FEE0FFF1FEE0FFF1F8E0F05
:101100009F1FFC01E758FD4F0180F281E02DE75F52
:10111000FE4F20822091120230911302F901EE0F4E
:10112000FF1FEE0FFF1FEE0FFF1F2E0F3F1FF901D6
:10113000E758FD4F72836183FB01EE5FFE4FB08283
:101140003696808190E0880F991F880F991F835BE6
:101150009D4F0CD9B6DA13CC8091120290911302F4
:10116000FC01EE0FFF1FEE0FFF1FEE0FFF1F8E0F94
:101170009F1FFC01E758FD4FB082809112029091B1
:101180001302FC01EE0FFF1FEE0FFF1FEE0FFF1FFC
:101190008E0F9F1FFC01E758FD4F10861782EFCB83
:1011A00080911402883040F49092161580921515A3
:1011B0008F5F80931402E3CBD0921615C092151561
:1011C000DECBF4E1C130DF0709F4D9CBE09115158E
:1011D000F09116158081918120911402281710F446
:1011E0006AD9CDCBFC01EE0FFF1FEB5EFD4F2081D6
:1011F00031812130310541F4880F991FFC01EB5EEC
:10120000FD4F11821082BBCBFE01EE5FFE4F30829C
:10121000880F991F880F991FBE018B5D9D4FA6D81F
:101220007CD9ADCBE0911515F0911615C081D18117
:10123000809114028C1710F43ED9A1CBFE01EE0F61
:10124000FF1FEE0FFF1FEB5DFD4F80819181892B0A
:10125000C9F0EF01CF01A4D8198218821B821A822B
:10126000FC01EE5FFE4F60823696208130E0220F57
:10127000331F220F331FBC01C901835B9D4F76D8FA
:1012800020DA7DCBCC0FDD1FCB5EDD4FF982E8820B
:1012900076CBDF91CF911F910F91FF90EF90DF9070
:1012A000CF90BF90AF909F908F907F906F905F9006
:1012B0004F903F902F90089580917902882389F074
:1012C00021E030E0F901EE0FFF1FEE0FFF1FEE0FE0
:1012D000FF1FE20FF31FE758FD4F8081811113C0FC
:1012E00002C020E030E0F901EE0FFF1FEE0FFF1FFC
:1012F000EE0FFF1FE20FF31FE758FD4F81E08083E1
:10130000822F932F08952F5F3F4F28303105D1F65C
:1013100081E080931102CFD88FEF9FEF0895CF9394
:10132000CFB7F894E0910F02F0911002EB5FFE4FFF
:1013300028E0208390931302809312020E94EB0016
:10134000CFBFCF910895CF93CFB7F894E0910F021C
:10135000F0911002EB5FFE4F29E02083909313027F
:10136000809312020E94EB00CFBFCF9108951F938C
:10137000CF93DF931FB72091090230910A02232BEC
:10138000B1F0F894C0E0D2E0998388835B834A830C
:101390006C83E0910F02F0911002EB5FFE4F81E051
:1013A00080830E94EB001FBF8D819E8101C0B3D955
:1013B000DF91CF911F910895CF93CFB7F8942091EB
:1013C0000F0230911002F901EB5FFE4F44E04083C1
:1013D000339745E040833496918380830E94EB00ED
:1013E000CFBFCF9108951F920F920FB60F92112485
:1013F0000BB60F922F933F934F935F936F937F930F
:101400008F939F93AF93BF93CF93EF93FF934091AD
:10141000490250914A024115510559F1CA01FC0196
:10142000EA5FFE4F20813181232B31F02081318111
:101430002150310931832083FC01EE5EFE4F808113
:101440009181009761F70EC0CFB7F894E0910F0239
:10145000F0911002EB5FFE4F8DE080830E94EB0065
:10146000CFBF07C0FA01EA5FFE4F80819181892BCF
:1014700059F3FF91EF91CF91BF91AF919F918F91D0
:101480007F916F915F914F913F912F910F900BBE84
:101490000F900FBE0F901F901895ACD940E050E010
:1014A00060E08FE891E063DF1CDA80E090E008956F
:1014B000EE0FFF1F881F8BBF0790F691E02D199448
:0414C000F894FFCFCE
:00000001FF
