S01700004763634170706C69636174696F6E332E7372656359
S113000078C0000088C0000086C0000084C00000E2
S113001082C0000080C000007EC000007CC00000E0
S11300207AC0000078C0000076C0000074C00000F0
S113003072C0000070C000006EC000006CC0000000
S11300406AC0000068C0000066C0000064C0000010
S113005062C0000060C000005EC000005CC0000020
S11300605AC0000058C0000056C0000054C0000030
S113007052C0000050C000004EC000004CC0000040
S11300804AC0000048C0000046C0000044C0000050
S113009042C0000040C000003EC000003CC0000060
S11300A03AC0000038C0000036C0000034C0000070
S11300B032C0000030C000002EC000002CC0000080
S11300C02AC0000028C0000026C0000024C0000090
S11300D022C0000020C000001EC000001CC00000A0
S11300E01AC000009503A10315042F04DB03A60323
S11300F0130411241FBECFEFD1E2DEBFCDBF00E059
S11301000CBF2AE0A0E0B2E001C01D92AB3DB207F3
S1130110E1F796D4A8C474CF0F921F922F923F9206
S11301204F925F926F927F928F929F92AF92BF9203
S1130130CF92DF92EF92FF920F931F932F933F93EF
S11301404F935F936F937F938F939F93AF93BF93DB
S1130150CF93DF93EF93FF930CB70F93FFB7FF9306
S1130160EDB7FEB70CB7E093D90AF093DA0AE09141
S1130170D70AF091D80AEDBFFEBF0CBFFF91FFBFB5
S11301800F910CBFFF91EF91DF91CF91BF91AF9190
S11301909F918F917F916F915F914F913F912F919B
S11301A01F910F91FF90EF90DF90CF90BF90AF9091
S11301B09F908F907F906F905F904F903F902F9083
S11301C01F900F9018950F921F922F923F924F926B
S11301D05F926F927F928F929F92AF92BF92CF92D3
S11301E0DF92EF92FF920F931F932F933F934F93BE
S11301F05F936F937F938F939F93AF93BF93CF93AB
S1130200DF93EF93FF930CB70F93FFB7FF93EDB713
S1130210FEB70CB7E093D70AF093D80AE091D90A55
S1130220F091DA0AEDBFFEBF0CBFFF91FFBF0F9143
S11302300CBFFF91EF91DF91CF91BF91AF919F914F
S11302408F917F916F915F914F913F912F911F916A
S11302500F91FF90EF90DF90CF90BF90AF909F9061
S11302608F907F906F905F904F903F902F901F9052
S11302700F9008950F931F93CF93DF93209107025C
S1130280309108022830310509F488C0E0910F024A
S1130290F0911002309769F0DF01AF5EBE4F2D91EF
S11302A03C9111973093100220930F0211961C92E7
S11302B01E9220910702309108022F5F3F4F309326
S11302C008022093070220E031E0DF011296ED01DD
S11302D08901199201501040E1F725ED31E0A15058
S11302E0BF4F2C9311973C9311971C9211978C93A9
S11302F011979C9311971C929F0127523F4F318372
S11303002083179611969C938E9312961C921696A0
S113031011965C934E93EF01C85FDE4F6883149689
S113032011961C921E9281E01D978C93888190E017
S11303301F9611961C921E92DC01AA0FBB1FAA0FD6
S1130340BB1FAD5EBD4F2D913C91232B79F4880FDB
S1130350991F880F991FDC01AD5EBD4F1196FC9368
S1130360EE931396FC93EE93129713C0880F991F84
S1130370880F991FDC01AD5EBD4F1296CD91DC91C3
S11303801397CF5EDE4FF983E8831396FC93EE93C5
S11303901297E75FFE4F8081918102C08FEF9FEF3C
S11303A0DF91CF911F910F9108958091090290914F
S11303B00A02892B51F0F894E0910D02F0910E029B
S11303C0EB5FFE4F83E08083FECE0895A3E1B2E0AD
S11303D060E070E02D913C9111972115310509F4ED
S11303E07AC0F901E15FFE4F80819181892B61F030
S11303F0C90169C0FC01E15FFE4F40815181452B79
S113040009F061C0C90101C0C901FC01E15FFE4FEF
S113041040815181452BA1F4DC01AF5EBE4F8D912B
S11304209C911197660F771F660F771FFB01ED5E96
S1130430FD4F9183808311961C921E92F90133C063
S1130440FC01EF5EFE4F80819181009759F1FC0120
S1130450E15FFE4F40815181452BC1F407C0FC018F
S1130460E15FFE4F40815181452B81F4DC01AF5E99
S1130470BE4F4D915C911197F901EF5EFE4F518390
S1130480408311961C921E92FC010DC0F901EF5E8F
S1130490FE4F20813181FC01EF5EFE4F808191810E
S11304A00097E9F6FFCFF0930E02E0930D028081EE
S11304B091819093D80A8093D70AEE5FFE4F83E030
S11304C0808378940895FC01EF5EFE4F80819181D2
S11304D0009709F08FCF6F5F7F4F14966B307105D3
S11304E009F078CFFFCFCF93DF93C0910D02D09165
S11304F00E02FE01E85FFE4F8081882359F1A3E1DB
S1130500B2E040E050E0EF018D919C91119700978B
S1130510B1F0FC01E15FFE4F20813181232B41F4D6
S11305201CC0FC01E15FFE4F20813181232BC1F00F
S1130530FC01EF5EFE4F80819181009791F74F5F40
S11305405F4F8881149690E048175907ECF280E0D9
S113055090E008C080E090E005C081E090E002C037
S113056081E090E0DF91CF910895BDDF892B31F1D7
S113057080910D0290910E02FC01EE5FFE4F21E08E
S11305802083DC01A85FBE4FEC91F0E0EE0FFF1F6B
S1130590EE0FFF1FED5EFD4F20813181FC01EF5E08
S11305A0FE4F31832083EC91F0E0EE0FFF1FEE0F3E
S11305B0FF1FED5EFD4F9183808308CF0895109255
S11305C08000E1E8F0E0108280818860808380818F
S11305D08260808380E29EE4909389008093880007
S11305E0EFE6F0E0808182608083089581E081B944
S11305F0099A10981198E3DF1092080210920702EA
S113060010920A021092090210920C0210920B022C
S1130610AFE3B2E020E030E043E151E0FD01CA0184
S113062011920197E9F7249FC001259F900D349FF3
S1130630900D1124815C9D4FFC01EE5FFE4F1082F2
S1130640379631832083AD5EBE4F3896B183A08345
S11306502F5F3F4F2730310509F71092C60A1092D9
S1130660D60A1092D50AEFE0F2E08FE392E091838C
S1130670808384EC99E0938382830895CF92DF9200
S1130680EF92FF920F931F93CF93DF938091090210
S113069090910A02892B09F0E7C08091070290919A
S11306A00802892B09F4E0C0F89481E090E090936B
S11306B00A02809309028ADE6894EE24E2F8CFE00D
S11306C0D2E0FF24F394CC24C394D12C00E012E0B4
S11306D0E0910D02F0910E02808191819093D80AED
S11306E08093D70AE15FFE4F80819181892B09F0C5
S11306F0FFCF12DDA0910D02B0910E028091D70AB6
S11307009091D80A11969C938E93FD01EB5FFE4F56
S1130710E0814E2F50E0FA013197E730F105C0F641
S11307208827EE58FF4F8F4F96C1F80142815381BD
S11307306481808191819EDDF8019683858315DF34
S1130740C7CFAE5FBE4FFC9241DEC2CFFD01EE5F6C
S1130750FE4FF0823696808190E0399611821082A5
S1130760FC01EE0FFF1FEE0FFF1FED5EFD4F20811A
S11307703181232B61F4880F991F880F991FFC0185
S1130780ED5EFD4FB183A083B383A28312C0880FB3
S1130790991F880F991F9C012D5E3D4FF90182819D
S11307A093818F5E9E4FFC01B183A083F901B383D3
S11307B0A2830CDE8DCFFD01EE5FFE4FF0823D96ED
S11307C0D182C0823797808190E03996118210825D
S11307D0FC01EE0FFF1FEE0FFF1FED5EFD4F2081AA
S11307E03181232B61F4880F991F880F991FFC0115
S11307F0ED5EFD4FB183A083B383A28312C0880F43
S1130800991F880F991F9C012D5E3D4FF90182812C
S113081093818F5E9E4FFC01B183A083F901B38362
S1130820A283D4DD55CFA1DE53CFFD01EE5FFE4F91
S113083010823F961182108288819981892B29F434
S1130840B983A883BB83AA8308C0EA81FB81EF5ED6
S1130850FE4FB183A083BB83AA83B8DD39CFAE5FDB
S1130860BE4FEC92B3DD34CFDF91CF911F910F9146
S1130870FF90EF90DF90CF900895CF93DF93209176
S1130880090230910A02232BA1F0F894C0E0D2E0CF
S1130890998388835B834A836C83E0910D02F09192
S11308A00E02EB5FFE4F81E080838DDC8D819E81A3
S11308B001C0E0DCDF91CF91089540E050E065E0B5
S11308C083EA94E0DADF71CD089580910902909172
S11308D00A02892B51F0F894E0910D02F0910E0276
S11308E0EB5FFE4F86E080836ECC0895D0E0CDE7C9
S11308F010988D2F9C2F0197F1F78D2F9C2F019726
S1130900F1F78D2F9C2F0197F1F78D2F9C2F0197D5
S1130910F1F7DBDFEDCF80E09DE70197F1F780E0B1
S11309209DE70197F1F780E09DE70197F1F780E0FB
S11309309DE70197F1F740E050E060E08EEE94E02F
S11309409CDFC3DFFECF40E050E061E08BE894E041
S113095094DFBBDFFECF2091480330914903281771
S1130960390799F021E030E063E171E0269FF0015E
S1130970279FF00D369FF00D1124E85BFC4F40815A
S1130980518148175907F9F402C020E030E043E1EF
S113099051E0249FF001259FF00D349FF00D1124A8
S11309A0E25BFC4F21E030E03183208320910D0293
S11309B030910E02F901E75FFE4F408151814817E3
S11309C0590759F403C02F5F3F4FD0CFF894F90172
S11309D0EB5FFE4F85E08083F6CB089540E050E066
S11309E060E086E794E049DFEC0100E01DE7109A3F
S11309F0202F312F21503109E9F7802F912F0197B2
S1130A00F1F7802F912F0197F1F7802F912F019704
S1130A10F1F7CE01A0DF59DF202F312F215031090A
S1130A20E9F7802F912F0197F1F7202F312F2150D3
S1130A303109E9F7202F312F21503109E9F7D7CFB8
S1130A40D5DD40E050E060E08DE594E016DF16DE91
S1130A5080E090E00895EE0FFF1F881F8BBF079082
S10D0A60F691E02D1994F894FFCFED
S9030000FC
